:100000000C9428010C9459010C9459010C94590139
:100010000C9459010C9459010C9459010C945901F8
:100020000C9459010C9459010C9459010C945901E8
:100030000C9459010C9459010C9459010C945901D8
:100040000C9459010C9459010C9459010C945901C8
:100050000C9459010C9459010C9459010C94CF0340
:100060000C9459010C9499030C946F030C9459014E
:100070000C9459010C9459010C9459010C94590198
:100080000C9459010C9459010C9459010C94590188
:100090000C9459010C9459010C9459010C94590178
:1000A0000C9459010C9459010C9459010C94590168
:1000B0000C9459010C9459010C9459010C94590158
:1000C0000C9459010C9459010C9459010C94590148
:1000D0000C9459010C9459010C9459010C94590138
:1000E0000C9459010C94EF020C94EB020C94E20274
:1000F0000C94DE020C94F9020C9497010C94F50216
:100100000C94EC050C9488010C94DA020C94E50232
:100110000C94C4020C94D6020C9407030C94F101C5
:100120000C9403030C94FD020C945B010C94B90134
:100130000C943E020C9415030C940B030C94AB012D
:100140000C9411030C94BF0200000A0B02090C0D61
:100150000E0807030401000000000000000000007A
:10016000000000000000000000000000000000008F
:10017000000000001211100000000000000000004C
:10018000000000000000000000000000000000006F
:100190002200250028002B002E003100340002012F
:1001A0000000050108010B010000210024002700C8
:1001B0002A002D0030003300010100000401070176
:1001C0000A010505050507050808080802020202DC
:1001D0000A0A0808040404040101010101010101E3
:1001E0000303030303030303040707070C0C0C0CAE
:1001F0000C0C0C0C02020202060606060606060697
:100200000B0B0B0B0B0B0B0B010210202008081023
:100210002040102040800201020108040201010276
:10022000040810204080804020100804020180044F
:1002300002018040201008040201080402010102AA
:100240000408102040800102040810204080EC05C2
:1002500011241FBECFEFD1E2DEBFCDBF00E00CBF47
:1002600012E0A0E0B2E0EAEDFCE000E00BBF02C06B
:1002700007900D92A837B107D9F723E0A8E7B2E0BD
:1002800001C01D92A032B207E1F711E0C8E2D1E04F
:1002900000E006C021970109802FFE010E944F0651
:1002A000C732D10780E00807A9F70E9419040C940F
:1002B0006B060C940000AF92BF92CF92DF92EF9248
:1002C000FF920F931F93CF93DF936C017B018B0100
:1002D000040F151FEB015E01AE18BF08C017D10750
:1002E00059F06991D601ED91FC910190F081E02DDA
:1002F000C6011995892B79F7C501DF91CF911F911F
:100300000F91FF90EF90DF90CF90BF90AF90089546
:10031000FC01538D448D252F30E0842F90E0821B0B
:10032000930B541710F0CF96089501970895FC0190
:10033000918D828D981761F0A28DAE0FBF2FB11DE8
:100340005D968C91928D9F5F9F73928F90E0089540
:100350008FEF9FEF0895FC01918D828D981731F0FA
:10036000828DE80FF11D858D90E008958FEF9FEF4E
:100370000895FC01918D228D892F90E0805C9F4F24
:10038000821B91098F739927089583E892E00E9458
:10039000B90121E0892B09F420E0822F0895FC01A6
:1003A000A48DA80FB92FB11DA35ABF4F2C91848DD6
:1003B00090E001968F739927848FA689B7892C9333
:1003C000A089B1898C91837080648C93938D848D86
:1003D000981306C00288F389E02D80818F7D808389
:1003E0000895EF92FF920F931F93CF93DF93EC0149
:1003F00081E0888F9B8D8C8D98131AC0E889F989CC
:10040000808185FF15C09FB7F894EE89FF896083CE
:10041000E889F98980818370806480839FBF81E04F
:1004200090E0DF91CF911F910F91FF90EF90089591
:10043000F62E0B8D10E00F5F1F4F0F731127E02E6C
:100440008C8D8E110CC00FB607FCFACFE889F989A4
:10045000808185FFF5CFCE010E94CF01F1CFEB8DDA
:10046000EC0FFD2FF11DE35AFF4FF0829FB7F89478
:100470000B8FEA89FB8980818062CFCFCF93DF9396
:10048000EC01888D8823B9F0AA89BB89E889F989AC
:100490008C9185FD03C0808186FD0DC00FB607FCE1
:1004A000F7CF8C9185FFF2CF808185FFEDCFCE0114
:1004B0000E94CF01E9CFDF91CF91089580E090E0D5
:1004C000892B29F00E94C50181110E94000080E063
:1004D00090E0892B49F080E090E0892B29F00E9480
:1004E000000081110E94000080E090E0892B49F01B
:1004F00080E090E0892B29F00E94000081110E9489
:10050000000080E090E0892B49F080E090E0892BAA
:1005100029F00E94000081110C9400000895282FFA
:1005200030E0F901E85BFE4F9491F901E85FFD4F7F
:1005300044912E533E4FF9012491222309F435C0F2
:10054000992311F191509231F8F4E92FF0E08827C6
:10055000E355FD4F8F4F0C944F06DE02E202BF02BF
:10056000D602DA02C402E502EB02EF02F502F9025A
:10057000FD0203030703C4020B031103150380915B
:1005800080008F7780938000E22FF0E0EE0FFF1F56
:10059000E257FE4FA591B4918FB7F894EC91611199
:1005A00048C040954E234C938FBF089580918000A2
:1005B0008F7DE8CF80918000877FE4CF84B58F77EF
:1005C00084BDE2CF84B58F7DFBCF8091B0008F7763
:1005D0008093B000D9CF8091B0008F7DF9CF80910A
:1005E00090008F7780939000CFCF809190008F7D87
:1005F000F9CF80919000877FF5CF8091A0008F7711
:100600008093A000C1CF8091A0008F7DF9CF809111
:10061000A000877FF5CF809120018F778093200104
:10062000B3CF809120018F7DF9CF80912001877F0A
:10063000F5CF4E2BB8CF3FB7F89480917D029091C3
:100640007E02A0917F02B091800226B5A89B05C0D2
:100650002F3F19F00196A11DB11D3FBFBA2FA92F41
:10066000982F8827BC01CD01620F711D811D911D3E
:1006700042E0660F771F881F991F4A95D1F70895AA
:10068000EF92FF920F931F93CF93DF93EC0108E556
:1006900012E07C0188E0E80EF11C9991F80180815C
:1006A0000E5F1F4F61E0911101C060E00E948F0258
:1006B000CE15DF0591F7DF91CF911F910F91FF903C
:1006C000EF900895FC0101900020E9F73197AF0108
:1006D000481B590BBC0183E892E00C945B011F920C
:1006E0000F920FB60F9211240BB60F922F933F93D8
:1006F0004F935F936F937F938F939F93AF93BF932A
:10070000EF93FF9383E892E00E94CF01FF91EF9176
:10071000BF91AF919F918F917F916F915F914F9119
:100720003F912F910F900BBE0F900FBE0F901F9017
:1007300018951F920F920FB60F9211240BB60F92BD
:100740002F938F939F93EF93FF93E0919302F091F8
:1007500094028081E0919902F0919A0282FD1DC07D
:10076000908180919C028F5F8F7320919D028217F0
:1007700041F0E0919C02F0E0ED57FD4F958F8093A2
:100780009C02FF91EF919F918F912F910F900BBE43
:100790000F900FBE0F901F9018958081F2CF1F927F
:1007A0000F920FB60F9211242F933F938F939F9325
:1007B000AF93BF938091790290917A02A0917B02CE
:1007C000B0917C023091780223E0230F2D3758F549
:1007D0000196A11DB11D2093780280937902909318
:1007E0007A02A0937B02B0937C0280917D0290916B
:1007F0007E02A0917F02B09180020196A11DB11DE1
:1008000080937D0290937E02A0937F02B09380023A
:10081000BF91AF919F918F913F912F910F900FBEFC
:100820000F901F90189526E8230F0296A11DB11D69
:10083000D2CFCF93DF93CDB7DEB7A1970FB6F894A1
:10084000DEBF0FBECDBF789484B5826084BD84B511
:10085000816084BD85B5826085BD85B5816085BDBB
:1008600080916E00816080936E0010928100809173
:1008700081008260809381008091810081608093FB
:100880008100809180008160809380008091B10020
:1008900084608093B1008091B00081608093B0004B
:1008A000809191008260809391008091910081609D
:1008B000809391008091900081608093900080915E
:1008C000A10082608093A1008091A100816080934B
:1008D000A1008091A00081608093A00080912101FF
:1008E00082608093210180912101816080932101A8
:1008F0008091200181608093200180917A00846042
:1009000080937A0080917A00826080937A0080914F
:100910007A00816080937A0080917A008068809369
:100920007A001092C100E0919302F091940282E06B
:100930008083E0918F02F09190021082E091910209
:10094000F09192028FEC808310929B02E0919702CB
:10095000F091980286E08083E0919502F0919602F2
:10096000808180618083E0919502F0919602808180
:1009700088608083E0919502F09196028081806882
:100980008083E0919502F091960280818F7D808333
:1009900087E390E0909382028093810208E512E061
:1009A00046E6E42E42E0F42EF801819191918F0108
:1009B0009927FC01E85FFD4F24918E539E4FFC0167
:1009C0008491882399F090E0880F991FFC01E855E5
:1009D000FE4FA591B491FC01E257FE4F8591949191
:1009E0008FB7F894EC91E22BEC938FBF60E0F801A5
:1009F000329780810E948F02E016F106A9F69AE0F4
:100A0000292E312C2AE0822E912CA12CB12C809100
:100A10008102863308F0865320917B00982F9870CE
:100A2000277F922B90937B008770806480937C005B
:100A300080917A00806480937A0080917A0086FDAC
:100A4000FCCF909178008091790089279827892799
:100A5000B1010E9419068B0186E692E00E946203B2
:100A600085E792E00E9462032801012E000C6608CF
:100A7000770817FF59C06DE283E892E00E94F10108
:100A800022273327A901241935094609570919A234
:100A9000CE0181967C01CA01B901A50194010E9491
:100AA0002D06605DF70162937F0121153105410537
:100AB000510589F7E114F10419F0C7010E9462039E
:100AC00085E792E00E9462030115110509F042C01A
:100AD0008FE392E00E9440030E941B036B017C01A4
:100AE00088EE482E83E0582E612C712C0E941B0347
:100AF0006C197D098E099F09683E73408105910537
:100B0000A8F3F1E04F1A51086108710828EEC20EEF
:100B100023E0D21EE11CF11C411451046104710454
:100B200029F70E945E0273CFA301920119A2CE01A0
:100B300081967C01CA01B901A50194010E942D068C
:100B4000605DF70162937F01211531054105510573
:100B500089F7B0CFC80101978930910508F4B8CF63
:100B600009970A9718F488E392E0B4CFC801449734
:100B70000A9718F481E392E0ADCFC8014E970A9727
:100B800018F48AE292E0A6CFC80188970A9718F471
:100B900083E292E09FCFC801C2970A9718F48CE1D4
:100BA00092E098CFC801CC970A9718F485E192E0BB
:100BB00091CFC801865491090A9718F48EE092E00B
:100BC00089CF0055110987E092E00A30110508F439
:100BD00081CF80E092E07ECFE3E8F2E013821282E0
:100BE00088EE93E0A0E0B0E084839583A683B7838A
:100BF0008AE492E09183808385EC90E095878487F6
:100C000084EC90E09787868780EC90E0918B808BD6
:100C100081EC90E0938B828B82EC90E0958B848BBF
:100C200086EC90E0978B868B118E128E138E148E2D
:100C3000089597FB072E16F4009407D077FD09D08E
:100C40000E94570607FC05D03EF4909581959F4F72
:100C50000895709561957F4F0895A1E21A2EAA1B01
:100C6000BB1BFD010DC0AA1FBB1FEE1FFF1FA2175C
:100C7000B307E407F50720F0A21BB30BE40BF50B59
:100C8000661F771F881F991F1A9469F760957095E2
:100C9000809590959B01AC01BD01CF010895EE0FA9
:100CA000FF1F881F8BBF0790F691E02D1994AA1B98
:100CB000BB1B51E107C0AA1FBB1FA617B70710F047
:100CC000A61BB70B881F991F5A95A9F78095909579
:0A0CD000BC01CD010895F894FFCF98
:100CDA0001010101000101010101010101010101FB
:100CEA0001000000000100010101010101000101F0
:100CFA0000010100010100000101010101010000E0
:100D0A0001010100010100010001010000000001D0
:100D1A0001010101010000000000F1015B018801ED
:100D2A003E02B9019701AB0116001700180019001D
:100D3A001A001B001C004C656374757261204163C4
:080D4A007475616C000D0A00D4
:00000001FF
