:100000000C945D000C9485000C9485000C94850084
:100010000C9485000C9485000C9485000C9485004C
:100020000C9485000C9485000C9485000C9485003C
:100030000C9485000C9485000C9485000C9485002C
:100040000C94D8050C9485000C94A6050C9480059E
:100050000C9485000C9485000C9485000C9485000C
:100060000C9422060C948500000000080002010098
:100070000003040700000000000000000000000072
:10008000250028002B0000000000240027002A0083
:10009000040404040404040402020202020203032E
:1000A0000303030301020408102040800102040836
:1000B0001020010204081020410711241FBECFEFB9
:1000C000D8E0DEBFCDBF11E0A0E0B1E0E0E3F1E1B8
:1000D00002C005900D92AA36B107D9F722E0AAE630
:1000E000B1E001C01D92AE3CB207E1F710E0CDE5F2
:1000F000D0E004C02197FE010E949008CC35D107C2
:10010000C9F70E9497070C9496080C94000090E0A1
:10011000FC01EC55FF4F249180579F4FFC018491C7
:10012000882399F090E0880F991FFC01EA57FF4F50
:10013000A591B491FC01E458FF4F859194918FB73C
:10014000F894EC91E22BEC938FBF08950895CF9330
:10015000DF93AC01E0910B02F0910C023097F1F0CB
:1001600090910A02809109029817C0F090E0292F1F
:1001700030E02617370754F4D901A659BE4F240F93
:10018000351FE90128812C939F5FF1CF10920A025D
:1001900060930902CB01DF91CF910994DF91CF9158
:1001A0000895AF92BF92CF92DF92EF92FF920F939A
:1001B0001F93CF93DF936C017B018B01040F151FFD
:1001C000EB015E01AE18BF08C017D10759F0699165
:1001D000D601ED91FC910190F081E02DC6010995C9
:1001E000892B79F7C501DF91CF911F910F91FF9076
:1001F000EF90DF90CF90BF90AF900895FC01538DAA
:10020000448D252F30E0842F90E0821B930B5417F0
:1002100010F0CF96089501970895FC01918D828D7D
:10022000981761F0A28DAE0FBF2FB11D5D968C9116
:10023000928D9F5F9F73928F90E008958FEF9FEF55
:100240000895FC01918D828D981731F0828DE80F11
:10025000F11D858D90E008958FEF9FEF0895FC01CB
:10026000918D228D892F90E0805C9F4F821B910998
:100270008F73992708958DE092E00E942F0121E06D
:10028000892B09F420E0822F089580E090E0892BEB
:1002900029F00E943B0181110C9400000895FC019B
:1002A000A48DA80FB92FB11DA35ABF4F2C91848DD7
:1002B00090E001968F739927848FA689B7892C9334
:1002C000A089B1898C91837080648C93938D848D87
:1002D000981306C00288F389E02D80818F7D80838A
:1002E0000895EF92FF920F931F93CF93DF93EC014A
:1002F00081E0888F9B8D8C8D98131AC0E889F989CD
:10030000808185FF15C09FB7F894EE89FF896083CF
:10031000E889F98980818370806480839FBF81E050
:1003200090E0DF91CF911F910F91FF90EF90089592
:10033000F62E0B8D10E00F5F1F4F0F731127E02E6D
:100340008C8D8E110CC00FB607FCFACFE889F989A5
:10035000808185FFF5CFCE010E944F01F1CFEB8D5B
:10036000EC0FFD2FF11DE35AFF4FF0829FB7F89479
:100370000B8FEA89FB8980818062CFCFCF93DF9397
:10038000EC01888D8823B9F0AA89BB89E889F989AD
:100390008C9185FD03C0808186FD0DC00FB607FCE2
:1003A000F7CF8C9185FFF2CF808185FFEDCFCE0115
:1003B0000E944F01E9CFDF91CF91089590E0FC01B9
:1003C000E859FF4F2491FC01EC55FF4F3491FC019B
:1003D000E057FF4FE491EE23C9F0222339F0233098
:1003E00001F1A8F4213019F1223029F1F0E0EE0FEB
:1003F000FF1FE458FF4FA591B4918FB7F894EC918B
:10040000611126C030953E233C938FBF089527305D
:10041000A9F02830C9F0243049F7809180008F7D01
:1004200003C0809180008F7780938000DFCF84B5F8
:100430008F7784BDDBCF84B58F7DFBCF8091B000FB
:100440008F778093B000D2CF8091B0008F7DF9CFAD
:100450003E2BDACF3FB7F8948091FF0190910002D4
:10046000A0910102B091020226B5A89B05C02F3FC2
:1004700019F00196A11DB11D3FBFBA2FA92F982FCA
:100480008827BC01CD01620F711D811D911D42E0C5
:10049000660F771F881F991F4A95D1F708952091FD
:1004A000B001260F3327331F21323105ECF42091A0
:1004B000D401FC0190E080E0243069F082E00895EE
:1004C000A091B0012191AC0140575E4FA40FB52F10
:1004D000B11D2C930196861798F38091B001680F97
:1004E0006093B00180E0089581E008951092D401F6
:1004F00081E08093D6011092D50161E082E10E94F3
:10050000DE0161E083E10E94DE01E9EBF0E0808141
:100510008E7F808380818D7F808388E48093B80084
:1005200085E48093BC0008950895E0910A028091CB
:100530000902E81730F4F0E0E659FE4F808190E0C0
:1005400008958FEF9FEF089590910A02809109021C
:100550002FEF3FEF981748F4E92FF0E0E659FE4FF0
:10056000208130E09F5F90930A02C9010895809135
:10057000090290910A02891B990B0895CF93DF938A
:10058000CB01EA01642F0E944F02CE01DF91CF918F
:100590000895CF93DF931F92CDB7DEB7698361E0F3
:1005A000CE0101960E944F0281E090E00F90DF9112
:1005B000CF910895089590E080E008958F929F92E2
:1005C000AF92BF920F931F93CF93DF93CDB7DEB758
:1005D000A1970FB6F894DEBF0FBECDBF19A242306F
:1005E00008F44AE08E010F5D1F4F842E912CB12C30
:1005F000A12CA50194010E946E08E62FB901CA0141
:10060000EA3044F5E05DD801EE938D01232B242BD5
:10061000252B79F790E080E0109769F0FD010190BB
:100620000020E9F73197AF014A1B5B0BBD0186EB58
:1006300092E00E94D100A1960FB6F894DEBF0FBEE3
:10064000CDBFDF91CF911F910F91BF90AF909F9041
:100650008F900895E95CD7CFFC0101900020E9F765
:100660003197AF01481B590BBC0186EB92E00C940B
:10067000D100CF93DF9385ED8093BC0080918C01F6
:1006800090918D01A0918E01B0918F010796A11DCF
:10069000B11D23E0B695A795979587952A95D1F733
:1006A0002091BC0024FD03C01092D40136C04091BB
:1006B0008C0150918D0160918E0170918F01452BBD
:1006C000462B472B69F30097A105B10541F025E3BF
:1006D0002A95F1F700000197A109B109E1CF8091B6
:1006E0008B0191E090938A018823B9F0C091B80002
:1006F000D091BA008091BC008A7B8093BC0060E0FE
:1007000082E10E94DE0160E083E10E94DE010E943E
:100710007602D093BA00C093B800DF91CF910895CC
:10072000CF93DF93EC0160E08E810E94DE0161E0F7
:100730008E810E94DE0160E08E810E94DE018BE8E6
:1007400091E00197F1F7DF91CF910895CF92DF9279
:10075000EF92FF920F931F93CF93DF936C017C0175
:1007600087E0E80EF11CD0E0C0E0062F10E0B801F1
:100770000C2E02C0759567950A94E2F76170F70137
:1007800081917F010E94DE012196C430D10579F765
:10079000C601DF91CF911F910F91FF90EF90DF90F5
:1007A000CF900C949003CF92DF92EF92FF920F9331
:1007B0001F93CF93DF93EC01F62E642F8C810E9460
:1007C000DE018D818F3F19F060E00E94DE010F2D68
:1007D00010E08F8584FF25C06E0187E0C80ED11C14
:1007E000F12CE12CB8010E2C02C0759567950A9486
:1007F000E2F76170F60181916F010E94DE01FFEF67
:10080000EF1AFF0A88E0E816F10461F7CE01DF91E4
:10081000CF911F910F91FF90EF90DF90CF900C94AC
:100820009003B80184E0759567958A95E1F7CE014C
:100830000E94A6036F2DCE01DF91CF911F910F91E2
:10084000FF90EF90DF90CF900C94A60340E0682FCC
:1008500086EB92E00C94D303CF93DF93823029F49C
:100860009091C50298609093C5028093C90210923E
:10087000CA0280E48093CB0280E18093CC0280E5C1
:100880008093CD028091BA020E9487008091BB02C2
:100890008F3F11F00E9487008091BC020E94870068
:1008A000C6EBD2E09E01265B32408091C50284FDFA
:1008B0000AC084E090E02196281739073CF48E8125
:1008C0000E948700EFCF88E090E0F5CF8BE39DE0BA
:1008D0000197F1F760E08091BA020E94DE0160E0CA
:1008E0008091BC020E94DE018091BB028F3F19F013
:1008F00060E00E94DE018091C50284FD39C063E0A2
:1009000086EB92E00E94A603CBE4D6E4CE010197E9
:10091000F1F763E086EB92E00E94A6032197F1F7DE
:1009200063E086EB92E00E94A60383E592E00197E4
:10093000F1F762E086EB92E00E94A6038091C50287
:1009400080620E94260484E08093C6028CE00E94AC
:10095000260481E00E9426048BE39FE10197F1F7D2
:1009600082E08093C70286E0DF91CF910C94260449
:1009700080620E9426048BE496E40197F1F780914F
:10098000C50280620E94260483E592E00197F1F798
:100990008091C50280620E942604D0CF9091C90246
:1009A000691710F06FEF690FE62FF0E0EA54FD4F82
:1009B0009489890F80680C94260441E00E94D30337
:1009C00081E090E00895CF92DF92EF92FF920F9333
:1009D0001F93CF9381E00E9426048BE39FE1019750
:1009E000F1F760E080E00E94CE048AEA92E00E9483
:1009F000A402C82F682F8DE092E00E94710160E090
:100A0000C134B1F484E00E94CE0487E391E00E94F7
:100A10002C0360E08AE00E94DE0160E089E0CF9173
:100A20001F910F91FF90EF90DF90CF900C94DE011B
:100A300080E00E94CE048FE391E00E942C03CC2E34
:100A40000C2E000CDD08EE08FF084AE0C701B601D5
:100A5000F7FE0EC041E06DE286EB92E00E94D30308
:100A600066277727CB016C197D098E099F094AE01B
:100A70000E94DE0280E40E94260400E011E088E08B
:100A8000E82E81E0F82EF80161918F0186EB92E06B
:100A90000E94DD04E016F106B1F760E08AE00E94F2
:100AA000CE0460E086EB92E00E94DD0487E491E0F2
:100AB0000E942C03C3313CF461E080E00E94CE042C
:100AC00089E491E0A4CF8C2FCC0F990B439761E080
:100AD000069748F480E00E94CE0484E591E00E94ED
:100AE0002C0361E097CF80E00E94CE048FE591E077
:100AF0000E942C0361E08AE00E94DE0161E08ECF5B
:100B00001F920F920FB60F9211242F933F934F9382
:100B10005F936F937F938F939F93AF93BF93EF9365
:100B2000FF938DE092E00E944F01FF91EF91BF9102
:100B3000AF919F918F917F916F915F914F913F9175
:100B40002F910F900FBE0F901F9018951F920F922C
:100B50000FB60F9211242F938F939F93EF93FF93D0
:100B6000E0911D02F0911E028081E0912302F0913C
:100B7000240282FD1BC09081809126028F5F8F73BB
:100B800020912702821741F0E0912602F0E0E35F16
:100B9000FD4F958F80932602FF91EF919F918F914A
:100BA0002F910F900FBE0F901F9018958081F4CF5A
:100BB0001F920F920FB60F9211242F933F938F9392
:100BC0009F93AF93BF938091FB019091FC01A09103
:100BD000FD01B091FE013091FA0123E0230F2D3782
:100BE00058F50196A11DB11D2093FA018093FB01D8
:100BF0009093FC01A093FD01B093FE018091FF0151
:100C000090910002A0910102B09102020196A11DF3
:100C1000B11D8093FF0190930002A0930102B09355
:100C20000202BF91AF919F918F913F912F910F90B1
:100C30000FBE0F901F90189526E8230F0296A11D56
:100C4000B11DD2CF1F920F920FB60F9211242F9386
:100C50003F934F935F936F937F938F939F93AF9344
:100C6000BF93EF93FF938091B900887F803609F49A
:100C70004AC0F0F5883209F4A7C018F5803109F4AC
:100C80009BC0B8F4882309F4F9C0883009F494C0F3
:100C9000FF91EF91BF91AF919F918F917F916F9154
:100CA0005F914F913F912F910F900FBE0F901F902A
:100CB0001895883109F488C0803251F78093D301A8
:100CC00014C0803409F49DC040F48033B9F38833F4
:100CD000F9F68093D30185ECB0C0803509F485C066
:100CE000883509F496C0883499F60E943903D0CF2C
:100CF000883909F48CC038F5883729F050F48836E3
:100D000011F0803729F683E08093D4011092D2014C
:100D100057C0883809F47BC0803919F0803809F051
:100D2000B7CF8091D201803208F071C0E091D2013A
:100D300081E08E0F8093D2018091BB00F0E0EE54F1
:100D4000FE4F80833DC0803B39F0E0F4803A09F4E7
:100D500079C0883A09F09CCF84E08093D401109246
:100D6000B1011092B001E0910502F09106020995DF
:100D70008091B00181110FC081E08093B001109289
:100D8000900109C0803C09F4A6CF883C09F4A3CFA8
:100D9000883B09F07DCFE091B10181E08E0F809317
:100DA000B101F0E0E057FE4F80818093BB0090914D
:100DB000B1018091B00129C08091F9018093BB00FD
:100DC00085EC8093BC0064CF9091F8018091F7018D
:100DD000981758F5E091F80181E08E0F8093F801A3
:100DE000F0E0E952FE4F8081E9CFE091F80181E027
:100DF0008E0F8093F8018091BB00F0E0E952FE4F26
:100E000080839091F8018091F7019817C8F285E8E6
:100E1000D8CFE091F80181E08E0F8093F8018091A6
:100E2000BB00F0E0E952FE4F80838091D601811132
:100E30005CCF81E08093D50184EA8093BC0010925E
:100E4000D40126CF85EC8093BC001092D401809110
:100E5000D201803230F4E091D201F0E0EE54FE4F46
:100E600010826091D20170E0E0910302F0910402DF
:100E700082EB91E009951092D2010ACF1092D30132
:100E800034CFEDE0F2E01382128288EE93E0A0E02E
:100E9000B0E084839583A683B7832BE031E0318370
:100EA000208325EC30E03587248724EC30E0378739
:100EB000268720EC30E0318B208B21EC30E0338B27
:100EC000228B22EC30E0358B248B26EC30E0378B04
:100ED000268B118E128E138E148EEAEAF2E01382A4
:100EE000128284839583A683B7838DE191E09183F9
:100EF0008083E6EBF2E0138212828FE291E091832D
:100F000080838DE084838FEF85838CE0868386E009
:100F1000878385E0808784E0818783E082871386EA
:100F2000148615861686178681E00C942C04789416
:100F300084B5826084BD84B5816084BD85B58260DE
:100F400085BD85B5816085BD80916E00816080938F
:100F50006E001092810080918100826080938100F8
:100F60008091810081608093810080918000816008
:100F7000809380008091B10084608093B100809163
:100F8000B00081608093B00080917A00846080938B
:100F90007A0080917A00826080937A0080917A0052
:100FA000816080937A0080917A00806880937A00D3
:100FB0001092C100E0911D02F0911E0282E0808338
:100FC000E0911902F0911A021082E0911B02F09157
:100FD0001C028FEC808310922502E0912102F09197
:100FE000220286E08083E0911F02F091200280813E
:100FF00080618083E0911F02F091200280818860EF
:101000008083E0911F02F0912002808180688083BC
:10101000E0911F02F091200280818F7D80838AE021
:101020000E94870089E00E94870010920A021092B5
:10103000090210920802109207020E94760286EAC4
:1010400090E0909306028093050287EA90E09093E7
:101050000402809303028EE28093BA0082E00E9431
:101060002C0460E084E00E94CE0487E391E00E94BB
:101070002C0383EE94E090930C0280930B02C0E06B
:10108000D0E00E942A024B015C0184E6C82ED12CDC
:10109000E12CF12C0E942A02681979098A099B091E
:1010A000683E734081059105A8F321E0C21AD1087A
:1010B000E108F10888EE880E83E0981EA11CB11C9F
:1010C000C114D104E104F10429F72097D1F20E9460
:1010D0003B018823B1F20E940000D3CFA1E21A2E77
:1010E000AA1BBB1BFD010DC0AA1FBB1FEE1FFF1FCC
:1010F000A217B307E407F50720F0A21BB30BE40B1C
:10110000F50B661F771F881F991F1A9469F7609562
:101110007095809590959B01AC01BD01CF0108951C
:10112000EE0FFF1F0590F491E02D0994F894FFCF86
:1011300002050200000000000000007101D100FE65
:1011400000BE012F010D01210100000000C902BEF7
:1011500002DB029402B702A402950200000000DD47
:1011600004D100DB02DA024150414741444F0054B0
:10117000454D50203A200043004E4956454C203AF8
:10118000203120004E4956454C203A203220004E56
:0A1190004956454C203A2033200058
:00000001FF
