:100000000C9482020C94B3020C94B3020C94B302CD
:100010000C94B3020C94B3020C94B3020C94B3028C
:100020000C94B3020C94B3020C94B3020C94B3027C
:100030000C94B3020C94B3020C94B3020C94B3026C
:100040000C94B3020C94B3020C94B3020C94B3025C
:100050000C94B3020C94B3020C94B3020C943009C8
:100060000C94B3020C94FA080C94D0080C94B302CC
:100070000C94B3020C94B3020C94B3020C94B3022C
:100080000C94B3020C94B3020C94B3020C94B3021C
:100090000C94B3020C94B3020C94B3020C94B3020C
:1000A0000C94B3020C94B3020C94B3020C94B302FC
:1000B0000C94B3020C94B3020C94B3020C94B302EC
:1000C0000C94B3020C94B3020C94B3020C94B302DC
:1000D0000C94B3020C94B3020C94B3020C94B302CC
:1000E0000C94B3020C942C040C9434040C94F10280
:1000F0000C9419040C9448040C9411040C943004CE
:100100000C9405030C941C040C9415040C94980393
:100110000C943A040C940D040C9447040C9426049B
:100120000C944C040C94B5020C947A090C94E202E1
:100130000C9422040C943E040C9413030C944B0373
:100140000C9407040C944204030800000000000112
:10015000085F000000000308030003000005081406
:100160003E143E140408246A2B1200050863130889
:10017000646305083649562050010803000000005A
:1001800003081C22410000030841221C000005084E
:1001900028180E1828050808083E08080208B0703C
:1001A0000000000408080808080002086060000059
:1001B000000408601806010004083E41413E0003A7
:1001C00008427F40000004086251494600040822AA
:1001D0004149360004081814127F000408274545D9
:1001E000390004083E49493000040861110907003C
:1001F0000408364949360004080649493E00020809
:100200005000000000020880500000000308102881
:1002100044000003081414140000030844281000CC
:10022000000408025909060005083E49555D0E0400
:10023000087E11117E0004087F4949360004083EFB
:100240004141220004087F41413E0004087F4949A2
:10025000410004087F0909010004083E41497A0071
:1002600004087F08087F000308417F41000004085C
:100270003040413F0004087F0814630004087F40B9
:1002800040400005087F020C027F05087F0408102B
:100290007F04083E41413E0004087F09090600042E
:1002A000083E4141BE0004087F0909760004084663
:1002B00049493200050801017F010104083F40401F
:1002C0003F0005080F3040300F05083F4038403FE1
:1002D0000508631408146305080708700807040874
:1002E000615149470002087F4100000004080106EF
:1002F0001860000208417F000000030802010200AC
:1003000000040840404040000208010200000004D0
:1003100008205454780004087F4444380004083806
:100320004444280004083844447F000408385454E6
:1003300018000308047E050000040898A4A47800AF
:1003400004087F040478000308447D40000004088A
:100350004080847D0004087F102844000308417F0A
:1003600040000005087C047C047804087C040478C0
:1003700000040838444438000408FC24241800040D
:1003800008182424FC0004087C080404000408481D
:10039000545424000308043F44000004083C404037
:1003A0007C0005081C2040201C05083C403C403CCB
:1003B0000508442810284404089CA0A07C000308D9
:1003C00064544C00000308083641000001087F0017
:1003D000000000030841360800000408080408046F
:1003E0000000002100240027002A002D00300033E7
:1003F0000001010000040107010A0100002200259C
:100400000028002B002E00310034000201000005FE
:100410000108010B01000020002300260029002C08
:10042000002F003200000100000301060109010550
:10043000050505070508080808020202020A0A085D
:100440000804040404010101010101010103030383
:100450000303030303040707070C0C0C0C0C0C0C20
:100460000C0202020206060606060606060B0B0B27
:100470000B0B0B0B0B010210202008081020401062
:100480002040800201020108040201010204081058
:100490002040808040201008040201800402018076
:1004A000402010080402010804020101020408109F
:1004B000204080010204081020408000000A0B0246
:1004C000090C0D0E080703040100000000000000E5
:1004D000000000000000000000000000000000001C
:1004E00000000000000000121110000000000000D9
:1004F00000000000000000000000000000000000FC
:1005000000007A0911241FBECFEFD1E2DEBFCDBFBC
:1005100000E00CBF23E0A4E6B2E001C01D92A938C0
:10052000B207E1F712E0A0E0B2E0E4EDFCE100E0A8
:100530000BBF02C007900D92A436B107D9F712E0A5
:10054000C2E8D2E000E006C021970109802FFE0139
:100550000E94360CC138D10780E00807A9F70E9435
:10056000D1090C94680E0C940000AF92BF92CF9208
:10057000DF92EF92FF920F931F93CF93DF936C0163
:100580007B018B01040F151FEB015E01AE18BF0844
:10059000C017D10759F06991D601ED91FC910190F6
:1005A000F081E02DC6011995892B79F7C501DF91FE
:1005B000CF911F910F91FF90EF90DF90CF90BF9060
:1005C000AF900895FC01538D448D252F30E0842F8A
:1005D00090E0821B930B541710F0CF96089501976B
:1005E0000895FC01918D828D981761F0A28DAE0F58
:1005F000BF2FB11D5D968C91928D9F5F9F73928FDF
:1006000090E008958FEF9FEF0895FC01918D828D0A
:10061000981731F0828DE80FF11D858D90E00895D7
:100620008FEF9FEF0895FC01918D228D892F90E02F
:10063000805C9F4F821B91098F739927089584E9ED
:1006400092E00E94130321E0892B09F420E0822F1D
:100650000895FC01A48DA80FB92FB11DA35ABF4F57
:100660002C91848D90E001968F739927848FA689B1
:10067000B7892C93A089B1898C91837080648C9305
:10068000938D848D981306C00288F389E02D8081B4
:100690008F7D80830895EF92FF920F931F93CF93E6
:1006A000DF93EC0181E0888F9B8D8C8D98131AC0AD
:1006B000E889F989808185FF15C09FB7F894EE8994
:1006C000FF896083E889F9898081837080648083F1
:1006D0009FBF81E090E0DF91CF911F910F91FF903C
:1006E000EF900895F62E0B8D10E00F5F1F4F0F73E4
:1006F0001127E02E8C8D8E110CC00FB607FCFACF9F
:10070000E889F989808185FFF5CFCE010E94290310
:10071000F1CFEB8DEC0FFD2FF11DE35AFF4FF0826F
:100720009FB7F8940B8FEA89FB8980818062CFCFD5
:10073000CF93DF93EC01888D8823B9F0AA89BB8918
:10074000E889F9898C9185FD03C0808186FD0DC003
:100750000FB607FCF7CF8C9185FFF2CF808185FF24
:10076000EDCFCE010E942903E9CFDF91CF9108950B
:1007700080E090E0892B29F00E941F0381110E94E4
:10078000000080E090E0892B49F080E090E0892B28
:1007900029F00E94000081110E94000080E090E09A
:1007A000892B49F080E090E0892B29F00E9400001D
:1007B00081110E94000080E090E0892B49F080E0E8
:1007C00090E0892B29F00E94000081110C94000018
:1007D00008958150823108F05AC0E82FF0E0882750
:1007E000EB50FC4F8F4F0C94360C15041904070482
:1007F0000D04110447041C04220426042C043004B4
:1008000034043A043E044704420448044C048091F2
:1008100080008F77809380000895809180008F7D85
:10082000F9CF80918000877FF5CF84B58F7784BD25
:10083000089584B58F7DFBCF8091B0008F77809332
:10084000B00008958091B0008F7DF9CF8091900025
:100850008F77809390000895809190008F7DF9CFDD
:1008600080919000877FF5CF8091A0008F77809353
:10087000A00008958091A0008F7DF9CF8091A00005
:10088000877FF5CF809120018F7780932001089595
:10089000809120018F7DF9CF80912001877FF5CF56
:1008A000CF93DF93282F30E0F901E554FB4F84917B
:1008B000F901EB58FB4FD491F901E15DFB4FC49175
:1008C000CC23A1F081110E94E903EC2FF0E0EE0FA0
:1008D000FF1FEB5EFB4FA591B491EC91ED2381E0FE
:1008E00090E009F480E0DF91CF91089580E090E0FE
:1008F000FACF1F93CF93DF93282F30E0F901E5540F
:10090000FB4F8491F901EB58FB4FD491F901E15D64
:10091000FB4FC491CC23A9F0162F81110E94E9034B
:10092000EC2FF0E0EE0FFF1FE550FC4FA591B491C6
:100930008FB7F894EC91111108C0D095DE23DC93A9
:100940008FBFDF91CF911F910895DE2BF8CFCF930A
:10095000DF9390E0FC01EB58FB4F2491815D9B4FAE
:10096000FC0184918823D1F090E0880F991FFC014D
:10097000EF51FC4FA591B491FC01E550FC4FC5919E
:10098000D49161110EC09FB7F8948C91E22FE0953D
:100990008E238C932881E223E8839FBFDF91CF9140
:1009A00008958FB7F894EC91E22BEC938FBFF6CFBC
:1009B0003FB7F8948091660290916702A091680217
:1009C000B091690226B5A89B05C02F3F19F001968A
:1009D000A11DB11D3FBFBA2FA92F982F8827BC0199
:1009E000CD01620F711D811D911D42E0660F771FC1
:1009F000881F991F4A95D1F708958F929F92AF92C1
:100A0000BF92CF92DF92EF92FF926B017C010E9426
:100A1000D8044B015C01C114D104E104F104B9F024
:100A20000E94D804681979098A099B09683E7340B5
:100A30008105910580F321E0C21AD108E108F1088F
:100A400088EE880E83E0981EA11CB11CE4CFFF90B5
:100A5000EF90DF90CF90BF90AF909F908F900895D0
:100A6000EF92FF920F931F93CF93DF93EC0100E47B
:100A700012E07C0188E0E80EF11C9991F801808178
:100A80000E5F1F4F61E0911101C060E00E94790488
:100A9000CE15DF0591F7DF91CF911F910F91FF9058
:100AA000EF9008950F931F93CF93DF93082F162F86
:100AB000D42FC8E06D2F661F6627661F802F0E9407
:100AC0007904DD0F61E0812F0E94790460E0812FBD
:100AD0000E947904C15071F7DF91CF911F910F915E
:100AE0000895CF92DF92EF92FF920F931F93CF93CF
:100AF000DF93D62FC82EC694C694C694D12CE82E68
:100B0000F12CC82FC77060E0809132030E947904F5
:100B100010E000E0CF5F8091340380171106D1F020
:100B2000CCF06091330380913103C016D10669F493
:100B30004C2F0E9452054D2F609133038091310359
:100B40000E9452050F5F1F4FE6CF40E00E94520502
:100B500040E0F2CF60E0809132030E94790461E0CE
:100B6000809132030E947904F701EF5CFC4FD4833B
:100B7000DF91CF911F910F91FF90EF90DF90CF9079
:100B800008952F923F924F925F926F927F928F9231
:100B90009F92AF92BF92CF92DF92EF92FF920F930C
:100BA0001F93CF93DF9300D000D01F92CDB7DEB755
:100BB0006C0180918A02282F30E03A8329832090AB
:100BC0008B02312C38E02316310409F475C0C601BC
:100BD0008F5C9C4F9F838E838AE8882E82E0982EBC
:100BE0008601412C512C32014394C8018C199D0976
:100BF000E981FA818E179F070CF09CC0802F8695A3
:100C000086958695282F30E03C832B83F12CE12CB0
:100C1000802F87708F5F8D83E214F3040CF07FC008
:100C20000035110508F077C038E0E316F1040CF048
:100C300072C0D301C2010E2C04C0880F991FAA1FD5
:100C4000BB1F0A94D2F7EE81FF814481F401228117
:100C500030E00E2C02C0359527950A94E2F720FF6C
:100C600048C0842BEE81FF81848360E08091320351
:100C70000E947904B12CA12C809134038A151B04A5
:100C800009F00CF43EC060913303809131032B8155
:100C90003C812A153B0581F54D810E945205EE816C
:100CA000FF81448160913303809131030E9452059A
:100CB000FFEFAF1ABF0AE0CF1C821B82E981FA81E5
:100CC0002B813C812E173F07ACF5C9018C0D9D1D72
:100CD0008035910540F4F901E657FD4F6281822F7E
:100CE0008C0D0E9471058B819C8101969C838B8366
:100CF000E5CF80958423B6CF40E00E94520540E0C6
:100D0000D1CF60E0809132030E94790461E080914C
:100D100032030E9479042FEFE21AF20A7DCF0F5FAF
:100D20001F4F8E819F8101969F838E839FEF891A2B
:100D3000990A5BCF27960FB6F894DEBF0FBECDBFE2
:100D4000DF91CF911F910F91FF90EF90DF90CF90A7
:100D5000BF90AF909F908F907F906F905F904F90DB
:100D60003F902F900895CF92DF92EF92FF920F93D2
:100D70001F93CF9301E313E0C1E060E08091320361
:100D80000E9479047801D12CC12C809134038C15F8
:100D90001D04B9F0B4F04C2F6091330380913103FE
:100DA0000E945205F7014481609133038091310321
:100DB0000E945205FFEFCF1ADF0A88E0E80EF11C0F
:100DC000E4CF60E0809132030E94790461E0809179
:100DD00032030E9479040F5F1F4FCF5FC93069F65D
:100DE000CF911F910F91FF90EF90DF90CF900895DA
:100DF000CF92DF92EF92FF920F931F93CF93DF93E7
:100E0000C1E0D0E060E0809132030E9479046E017D
:100E100081E0C81AD10801E313E0F12CE12C8091A4
:100E200034038E151F04B9F0B4F04C2F60913303D6
:100E3000809131030E94520540E06091330380911C
:100E400031030E945205F8011482FFEFEF1AFF0AE6
:100E50000C0D1D1DE4CF60E0809132030E947904E7
:100E600061E0809132030E9479042196C930D10556
:100E700049F6E5E3F3E085E893E011928E179F07CA
:100E8000E1F7DF91CF911F910F91FF90EF90DF90ED
:100E9000CF9008950F931F93CF93DF93082F162FB2
:100EA00060E0809132030E947904D0E0C0E080913C
:100EB00034038C171D0689F084F0402F60913303B2
:100EC000809131030E945205412F6091330380913C
:100ED00031030E9452052196EACF60E080913203EF
:100EE0000E94790461E080913203DF91CF911F91DC
:100EF0000F910C947904EF92FF920F931F93CF936D
:100F0000DF93EC017B018A0188819981009729F0A8
:100F10002A813B812417350788F4B8016F5F7F4F22
:100F20000E94770D009791F0998388831B830A8331
:100F30002C813D81232B11F4FC0110821D830C8335
:100F4000B701888199810E94610E0CC088819981C6
:100F5000009711F00E94EE0C198218821D821C82EB
:100F60001B821A82CE01DF91CF911F910F91FF90CA
:100F7000EF9008958F929F92AF92BF92DF92EF927F
:100F8000FF920F931F93CF93DF9300D000D0CDB784
:100F9000DEB78C014B011A8219821C821B821E82D1
:100FA0001D82FC0101900020E9F73197AF01481B39
:100FB000590BBC01CE0101960E947B07F12CE12C5C
:100FC00087E0D82E092C000CAA08BB08F8018191F3
:100FD0008F01882369F18D819E81E816F90620F43E
:100FE000E981FA81309709F510926402E4E6F2E0B3
:100FF00060816032B4F060526D9DB0011124685B75
:101000007E4F47E050E08AE892E00E94190C89E0A8
:1010100090E00E94C105C501B4010E94FD040E9438
:10102000F806FFEFEF1AFF0AD1CFEE0DFF1DE0CF5C
:1010300089819A81009711F00E94EE0C26960FB6D6
:10104000F894DEBF0FBECDBFDF91CF911F910F91FE
:10105000FF90EF90DF90BF90AF909F908F9008959A
:101060009F92AF92BF92CF92DF92EF92FF920F9337
:101070001F93CF93DF93EC0187E0982E6B01770FDE
:10108000EE08FF0805E313E06991662381F1603201
:10109000DCF36052699DB0011124685B7E4F47E02C
:1010A00050E08AE892E00E94190C82E090E00E94F1
:1010B000C10580918A0260E08E5F0E947105B12CAB
:1010C000A12C80918A028A151B04F4F2C701B60193
:1010D0000E94FD04E4E8F3E0829181830E171F076C
:1010E000D9F70E94B3068FEFA81AB80AEACFDF91AA
:1010F000CF911F910F91FF90EF90DF90CF90BF9015
:10110000AF909F900895BF92CF92DF92EF92FF929F
:101110000F931F93CF93DF93EC0187E0B82E6B0101
:10112000770FEE08FF086991662381F16032DCF3E6
:1011300060526B9DB0011124685B7E4F47E050E028
:101140008AE892E00E94190C80E290E00E94C105BA
:1011500080918A0260E0805E0E94710510E000E0EC
:1011600080918A0280171106F4F2C701B6010E942D
:10117000FD04E5E3F3E08181819383E0E538F8073E
:10118000D1F70E94B3060F5F1F4FEACFDF91CF91D7
:101190001F910F91FF90EF90DF90CF90BF90089537
:1011A0001F920F920FB60F9211240BB60F922F932E
:1011B0003F934F935F936F937F938F939F93AF93DF
:1011C000BF93EF93FF9384E992E00E942903FF917C
:1011D000EF91BF91AF919F918F917F916F915F91AF
:1011E0004F913F912F910F900BBE0F900FBE0F901C
:1011F0001F9018951F920F920FB60F9211240BB6E5
:101200000F922F938F939F93EF93FF93E091A402FC
:10121000F091A5028081E091AA02F091AB0282FDDB
:101220001DC090818091AD028F5F8F732091AE02BF
:10123000821741F0E091AD02F0E0EC56FD4F958F42
:101240008093AD02FF91EF919F918F912F910F901D
:101250000BBE0F900FBE0F901F9018958081F2CF9C
:101260001F920F920FB60F9211242F933F938F93DB
:101270009F93AF93BF9380916A0290916B02A0916C
:101280006C02B0916D023091650223E0230F2D377F
:1012900058F50196A11DB11D2093650280936A0245
:1012A00090936B02A0936C02B0936D0280916602E2
:1012B00090916702A0916802B09169020196A11D08
:1012C000B11D8093660290936702A0936802B09369
:1012D0006902BF91AF919F918F913F912F910F9094
:1012E0000FBE0F901F90189526E8230F0296A11DA0
:1012F000B11DD2CF109297021092960288EE93E021
:10130000A0E0B0E08093980290939902A0939A0293
:10131000B0939B0282E592E09093950280939402B1
:1013200085EC90E09093A1028093A00284EC90E081
:101330009093A3028093A20280EC90E09093A50288
:101340008093A40281EC90E09093A7028093A60280
:1013500082EC90E09093A9028093A80286EC90E042
:101360009093AB028093AA021092AD021092AE024B
:101370001092AF021092B0028CE0809331038AE0A9
:10138000809332038BE08093330382E080933403B5
:10139000E5E3F3E085E893E011928E179F07E1F70C
:1013A0000895CF93DF9300D000D0CDB7DEB7789407
:1013B00084B5826084BD84B5816084BD85B582605A
:1013C00085BD85B5816085BD80916E00816080930B
:1013D0006E00109281008091810082608093810074
:1013E0008091810081608093810080918000816084
:1013F000809380008091B10084608093B1008091DF
:10140000B00081608093B0008091910082608093F1
:101410009100809191008160809391008091900073
:101420008160809390008091A10082608093A100F0
:101430008091A10081608093A1008091A0008160D3
:101440008093A0008091210182608093210180918E
:10145000210181608093210180912001816080932E
:10146000200180917A00846080937A0080917A00D4
:10147000826080937A0080917A00816080937A0004
:1014800080917A00806880937A001092C10061E0B8
:10149000809131030E94A70461E0809133030E9490
:1014A000A70461E0809132030E94A70461E080916B
:1014B00033030E94790467E08BE00E944A0760E0F2
:1014C00089E00E944A0761E08CE00E944A0760E0E0
:1014D0008FE00E944A070E94F8066FE08AE00E94AF
:1014E0004A076FE08AE00E944A07E091A402F09167
:1014F000A50282E08083E091A002F091A102108217
:10150000E091A202F091A3028FEC80831092AC02D2
:10151000E091A802F091A90286E08083E091A60202
:10152000F091A702808180618083E091A602F09112
:10153000A702808188608083E091A602F091A702D3
:10154000808180688083E091A602F091A70280816B
:101550008F7D808387E390E0909389028093880257
:1015600060E087E00E94A70460E086E00E94A70494
:1015700060E085E00E94A70400E412E06EE4C62E5D
:1015800062E0D62EF801F0800E5F1F4F61E08F2DD4
:101590000E94A70460E08F2D0E947904C016D10636
:1015A00089F74AE0642E712C52E8852E52E0952E80
:1015B00080918802863308F0865320917B00982F13
:1015C0009870277F922B90937B0087708064809324
:1015D0007C0080917A00806480937A0080917A0008
:1015E00086FDFCCF9091780080917900892798271B
:1015F0008927B3010E94220C6531710508F0ACC047
:101600008CE192E00E94300504EF11E085E00E9439
:1016100050045C01909387028093860287E00E94C9
:1016200050046C01909385028093840286E00E94AE
:1016300050047C019093830280938202AA94AB2889
:1016400009F0DCC084E992E00E941303892B09F4BD
:10165000BDC03EE6E32E32E0F32E2FB7F894809122
:101660006A0290916B02A0916C02B0916D022FBF43
:1016700080939C0290939D02A0939E02B0939F0240
:1016800084E992E00E94F10297FFC7C02FB7F89457
:1016900080916A0290916B02A0916C02B0916D02F0
:1016A0002FBF40919C0250919D0260919E027091CB
:1016B0009F02841B950BA60BB70B4091980250918B
:1016C000990260919A0270919B0284179507A60770
:1016D000B707B0F21A8219821C821B821E821D82F9
:1016E0004EE652E0FA0101900020E9F7AF014F56B3
:1016F00052406EE672E0CE0101960E947B074D815A
:101700005E8169817A8184E992E00E94B50242E0BB
:1017100050E060E672E084E992E00E94B5028091B8
:10172000840290918502019709F03FC0B801759538
:1017300067958EE692E00E94BA0789819A810097A8
:1017400011F00E94EE0C68EE73E080E090E00E94E1
:10175000FD040E94B8032CCFCB014597449738F481
:1017600085E192E00E94300500E911E04FCFCB0106
:101770008997449738F48EE092E00E9430050CE29D
:1017800011E044CF6D5371096431710538F487E07D
:1017900092E00E94300508EC10E038CF80E092E043
:1017A0000E94300504E610E031CF809182029091D2
:1017B0008302B801019729F48EE692E00E94830823
:1017C000BCCF8EE692E00E943008B7CFB801CA9431
:1017D000CD2839F4759567958EE692E00E94BA0798
:1017E000B2CFEA94EF2829F48EE692E00E948308B3
:1017F000AACF8EE692E00E943008A5CFB801CA9425
:10180000CD2829F47595679583E292E0E7CF83E2CE
:1018100092E0EA94EF2879F7E9CF8A30910509F44C
:1018200059CFF70181937F018E169F0609F015CFDE
:1018300051CFFB01DC0102C005900D924150504098
:10184000D8F7089597FB072E16F4009407D077FD7C
:1018500009D00E943E0C07FC05D03EF4909581957E
:101860009F4F0895709561957F4F0895EE0FFF1F6C
:10187000881F8BBF0790F691E02D1994AA1BBB1B04
:1018800051E107C0AA1FBB1FA617B70710F0A61B80
:10189000B70B881F991F5A95A9F780959095BC01A1
:1018A000CD0108950F931F93CF93DF93823091055D
:1018B00010F482E090E0E0918703F091880330E03B
:1018C00020E0B0E0A0E0309799F42115310509F44B
:1018D0004AC0281B390B24303105D8F58A819B81F9
:1018E0006115710589F1FB0193838283FE0111C0AB
:1018F000408151810281138148175907E0F0481750
:10190000590799F4109761F012960C931297139659
:101910001C933296CF01DF91CF911F910F910895C3
:101920000093870310938803F4CF2115310551F0FC
:101930004217530738F0A901DB019A01BD01DF010D
:10194000F801C1CFEF01F9CF90938803809387030B
:10195000CDCFFE01E20FF31F819391932250310905
:1019600039832883D7CF2091850330918603232B99
:1019700041F420913C0230913D0230938603209344
:10198000850320913A0230913B022115310541F443
:101990002DB73EB740913E0250913F02241B350BBC
:1019A000E0918503F0918603E217F307A0F42E1B64
:1019B0003F0B2817390778F0AC014E5F5F4F2417B3
:1019C000350748F04E0F5F1F509386034093850301
:1019D000819391939FCFF0E0E0E09CCFCF93DF9392
:1019E0000097E9F0FC01329713821282A0918703DD
:1019F000B0918803ED0130E020E01097A1F4208140
:101A00003181820F931F209185033091860328171F
:101A1000390709F061C0F0938603E0938503DF91F5
:101A2000CF910895EA01CE17DF07E8F54A815B817F
:101A30009E0141155105B1F7E901FB83EA83499104
:101A40005991C40FD51FEC17FD0761F48081918176
:101A50000296840F951FE90199838883828193817F
:101A60009B838A83F0E0E0E012968D919C9113971E
:101A70000097B9F52D913C911197CD010296820FF7
:101A8000931F20918503309186032817390739F673
:101A9000309751F51092880310928703B093860314
:101AA000A0938503BCCFD383C28340815181840F2F
:101AB000951FC817D90761F44E5F5F4F88819981E0
:101AC000480F591F518340838A819B81938382836E
:101AD0002115310509F0B0CFF0938803E093870317
:101AE0009ECFFD01DC01C0CF13821282D7CF4F926F
:101AF0005F926F927F928F929F92AF92BF92CF929E
:101B0000DF92EF92FF920F931F93CF93DF938C019D
:101B1000009799F4CB01DF91CF911F910F91FF9026
:101B2000EF90DF90CF90BF90AF909F908F907F907D
:101B30006F905F904F900C94520CFC01E60FF71FD2
:101B40009C0122503109E217F30708F4AEC0D90115
:101B5000CD91DC911197C617D70720F1C530D1057B
:101B600078F0CE0104978617970750F0C61BD70B65
:101B70002297C193D1936D937C93CF010E94EE0C79
:101B8000C801DF91CF911F910F91FF90EF90DF90EF
:101B9000CF90BF90AF909F908F907F906F905F900D
:101BA0004F9008955B01AC1ABD0A4C018C0E9D1E2E
:101BB000A0918703B0918803512C412CF12CE12C8A
:101BC000109731F5809185039091860388159905CA
:101BD00009F05CC04616570608F058C080913A02DA
:101BE00090913B02009741F48DB79EB740913E0221
:101BF00050913F02841B950BE817F90708F055C078
:101C0000F0938603E0938503F90171836083B8CF75
:101C10008D919C91119712966C90129713967C90CF
:101C20001397A815B90559F56C0142E0C40ED11CF3
:101C3000CA14DB0420F1AC014A195B09DA011296DF
:101C4000159780F06282738251834083D9016D932E
:101C50007C93E114F10471F0D7011396FC93EE9399
:101C600012978ECF22968C0F9D1FF901918380834E
:101C7000F301EFCFF0938803E093870381CF4816F9
:101C8000590608F42C017D01D3019ACFCB010E94A3
:101C9000520C7C01009749F0AE01B8010E94580E29
:101CA000C8010E94EE0C87016BCF10E000E068CF06
:101CB000FB01DC0102C001900D9241505040D8F769
:101CC0000895FB01DC0101900D920020E1F70895D9
:041CD000F894FFCFB6
:101CD40001000101000101000101000001010101F5
:101CE40001010000010101000101000100010100E6
:101CF4000000002A50315F475255504F31382D5360
:101D0400454343494F4E20412A0000008903800087
:101D140016001700180019001A001B001C00000010
:101D240000004B03B502E20298031303F10205031A
:041D34000D0A000094
:00000001FF
