:020000040000FA
:100000000C9482020C94B3020C94B3020C94B302CD
:100010000C94B3020C94B3020C94B3020C94B3028C
:100020000C94B3020C94B3020C94B3020C94B3027C
:100030000C94B3020C94B3020C94B3020C94B3026C
:100040000C94B3020C94B3020C94B3020C94B3025C
:100050000C94B3020C94B3020C94B3020C943009C8
:100060000C94B3020C94FA080C94D0080C94B302CC
:100070000C94B3020C94B3020C94B3020C94B3022C
:100080000C94B3020C94B3020C94B3020C94B3021C
:100090000C94B3020C94B3020C94B3020C94B3020C
:1000A0000C94B3020C94B3020C94B3020C94B302FC
:1000B0000C94B3020C94B3020C94B3020C94B302EC
:1000C0000C94B3020C94B3020C94B3020C94B302DC
:1000D0000C94B3020C94B3020C94B3020C94B302CC
:1000E0000C94B3020C942C040C9434040C94F10280
:1000F0000C9419040C9448040C9411040C943004CE
:100100000C9405030C941C040C9415040C94980393
:100110000C943A040C940D040C9447040C9426049B
:100120000C944C040C94B5020C947A090C94E202E1
:100130000C9422040C943E040C9413030C944B0373
:100140000C9407040C944204030800000000000112
:10015000085F000000000308030003000005081406
:100160003E143E140408246A2B1200050863130889
:10017000646305083649562050010803000000005A
:1001800003081C22410000030841221C000005084E
:1001900028180E1828050808083E08080208B0703C
:1001A0000000000408080808080002086060000059
:1001B000000408601806010004083E41413E0003A7
:1001C00008427F40000004086251494600040822AA
:1001D0004149360004081814127F000408274545D9
:1001E000390004083E49493000040861110907003C
:1001F0000408364949360004080649493E00020809
:100200005000000000020880500000000308102881
:1002100044000003081414140000030844281000CC
:10022000000408025909060005083E49555D0E0400
:10023000087E11117E0004087F4949360004083EFB
:100240004141220004087F41413E0004087F4949A2
:10025000410004087F0909010004083E41497A0071
:1002600004087F08087F000308417F41000004085C
:100270003040413F0004087F0814630004087F40B9
:1002800040400005087F020C027F05087F0408102B
:100290007F04083E41413E0004087F09090600042E
:1002A000083E4141BE0004087F0909760004084663
:1002B00049493200050801017F010104083F40401F
:1002C0003F0005080F3040300F05083F4038403FE1
:1002D0000508631408146305080708700807040874
:1002E000615149470002087F4100000004080106EF
:1002F0001860000208417F000000030802010200AC
:1003000000040840404040000208010200000004D0
:1003100008205454780004087F4444380004083806
:100320004444280004083844447F000408385454E6
:1003300018000308047E050000040898A4A47800AF
:1003400004087F040478000308447D40000004088A
:100350004080847D0004087F102844000308417F0A
:1003600040000005087C047C047804087C040478C0
:1003700000040838444438000408FC24241800040D
:1003800008182424FC0004087C080404000408481D
:10039000545424000308043F44000004083C404037
:1003A0007C0005081C2040201C05083C403C403CCB
:1003B0000508442810284404089CA0A07C000308D9
:1003C00064544C00000308083641000001087F0017
:1003D000000000030841360800000408080408046F
:1003E0000000002100240027002A002D00300033E7
:1003F0000001010000040107010A0100002200259C
:100400000028002B002E00310034000201000005FE
:100410000108010B01000020002300260029002C08
:10042000002F003200000100000301060109010550
:10043000050505070508080808020202020A0A085D
:100440000804040404010101010101010103030383
:100450000303030303040707070C0C0C0C0C0C0C20
:100460000C0202020206060606060606060B0B0B27
:100470000B0B0B0B0B010210202008081020401062
:100480002040800201020108040201010204081058
:100490002040808040201008040201800402018076
:1004A000402010080402010804020101020408109F
:1004B000204080010204081020408000000A0B0246
:1004C000090C0D0E080703040100000000000000E5
:1004D000000000000000000000000000000000001C
:1004E00000000000000000121110000000000000D9
:1004F00000000000000000000000000000000000FC
:1005000000007A0911241FBECFEFD1E2DEBFCDBFBC
:1005100000E00CBF23E0A4E6B2E001C01D92A938C0
:10052000B207E1F712E0A0E0B2E0E4EDFCE100E0A8
:100530000BBF02C007900D92A436B107D9F712E0A5
:10054000C2E8D2E000E006C021970109802FFE0139
:100550000E94360CC138D10780E00807A9F70E9435
:10056000D1090C94680E0C940000AF92BF92CF9208
:10057000DF92EF92FF920F931F93CF93DF936C0163
:100580007B018B01040F151FEB015E01AE18BF0844
:10059000C017D10759F06991D601ED91FC910190F6
:1005A000F081E02DC6011995892B79F7C501DF91FE
:1005B000CF911F910F91FF90EF90DF90CF90BF9060
:1005C000AF900895FC01538D448D252F30E0842F8A
:1005D00090E0821B930B541710F0CF96089501976B
:1005E0000895FC01918D828D981761F0A28DAE0F58
:1005F000BF2FB11D5D968C91928D9F5F9F73928FDF
:1006000090E008958FEF9FEF0895FC01918D828D0A
:10061000981731F0828DE80FF11D858D90E00895D7
:100620008FEF9FEF0895FC01918D228D892F90E02F
:10063000805C9F4F821B91098F739927089584E9ED
:1006400092E00E94130321E0892B09F420E0822F1D
:100650000895FC01A48DA80FB92FB11DA35ABF4F57
:100660002C91848D90E001968F739927848FA689B1
:10067000B7892C93A089B1898C91837080648C9305
:10068000938D848D981306C00288F389E02D8081B4
:100690008F7D80830895EF92FF920F931F93CF93E6
:1006A000DF93EC0181E0888F9B8D8C8D98131AC0AD
:1006B000E889F989808185FF15C09FB7F894EE8994
:1006C000FF896083E889F9898081837080648083F1
:1006D0009FBF81E090E0DF91CF911F910F91FF903C
:1006E000EF900895F62E0B8D10E00F5F1F4F0F73E4
:1006F0001127E02E8C8D8E110CC00FB607FCFACF9F
:10070000E889F989808185FFF5CFCE010E94290310
:10071000F1CFEB8DEC0FFD2FF11DE35AFF4FF0826F
:100720009FB7F8940B8FEA89FB8980818062CFCFD5
:10073000CF93DF93EC01888D8823B9F0AA89BB8918
:10074000E889F9898C9185FD03C0808186FD0DC003
:100750000FB607FCF7CF8C9185FFF2CF808185FF24
:10076000EDCFCE010E942903E9CFDF91CF9108950B
:1007700080E090E0892B29F00E941F0381110E94E4
:10078000000080E090E0892B49F080E090E0892B28
:1007900029F00E94000081110E94000080E090E09A
:1007A000892B49F080E090E0892B29F00E9400001D
:1007B00081110E94000080E090E0892B49F080E0E8
:1007C00090E0892B29F00E94000081110C94000018
:1007D00008958150823108F05AC0E82FF0E0882750
:1007E000EB50FC4F8F4F0C94360C15041904070482
:1007F0000D04110447041C04220426042C043004B4
:1008000034043A043E044704420448044C048091F2
:1008100080008F77809380000895809180008F7D85
:10082000F9CF80918000877FF5CF84B58F7784BD25
:10083000089584B58F7DFBCF8091B0008F77809332
:10084000B00008958091B0008F7DF9CF8091900025
:100850008F77809390000895809190008F7DF9CFDD
:1008600080919000877FF5CF8091A0008F77809353
:10087000A00008958091A0008F7DF9CF8091A00005
:10088000877FF5CF809120018F7780932001089595
:10089000809120018F7DF9CF80912001877FF5CF56
:1008A000CF93DF93282F30E0F901E554FB4F84917B
:1008B000F901EB58FB4FD491F901E15DFB4FC49175
:1008C000CC23A1F081110E94E903EC2FF0E0EE0FA0
:1008D000FF1FEB5EFB4FA591B491EC91ED2381E0FE
:1008E00090E009F480E0DF91CF91089580E090E0FE
:1008F000FACF1F93CF93DF93282F30E0F901E5540F
:10090000FB4F8491F901EB58FB4FD491F901E15D64
:10091000FB4FC491CC23A9F0162F81110E94E9034B
:10092000EC2FF0E0EE0FFF1FE550FC4FA591B491C6
:100930008FB7F894EC91111108C0D095DE23DC93A9
:100940008FBFDF91CF911F910895DE2BF8CFCF930A
:10095000DF9390E0FC01EB58FB4F2491815D9B4FAE
:10096000FC0184918823D1F090E0880F991FFC014D
:10097000EF51FC4FA591B491FC01E550FC4FC5919E
:10098000D49161110EC09FB7F8948C91E22FE0953D
:100990008E238C932881E223E8839FBFDF91CF9140
:1009A00008958FB7F894EC91E22BEC938FBFF6CFBC
:1009B0003FB7F8948091660290916702A091680217
:1009C000B091690226B5A89B05C02F3F19F001968A
:1009D000A11DB11D3FBFBA2FA92F982F8827BC0199
:1009E000CD01620F711D811D911D42E0660F771FC1
:1009F000881F991F4A95D1F708958F929F92AF92C1
:100A0000BF92CF92DF92EF92FF926B017C010E9426
:100A1000D8044B015C01C114D104E104F104B9F024
:100A20000E94D804681979098A099B09683E7340B5
:100A30008105910580F321E0C21AD108E108F1088F
:100A400088EE880E83E0981EA11CB11CE4CFFF90B5
:100A5000EF90DF90CF90BF90AF909F908F900895D0
:100A6000EF92FF920F931F93CF93DF93EC0100E47B
:100A700012E07C0188E0E80EF11C9991F801808178
:100A80000E5F1F4F61E0911101C060E00E94790488
:100A9000CE15DF0591F7DF91CF911F910F91FF9058
:100AA000EF9008950F931F93CF93DF93082F162F86
:100AB000D42FC8E06D2F661F6627661F802F0E9407
:100AC0007904DD0F61E0812F0E94790460E0812FBD
:100AD0000E947904C15071F7DF91CF911F910F915E
:100AE0000895CF92DF92EF92FF920F931F93CF93CF
:100AF000DF93D62FC82EC694C694C694D12CE82E68
:100B0000F12CC82FC77060E0809132030E947904F5
:100B100010E000E0CF5F8091340380171106D1F020
:100B2000CCF06091330380913103C016D10669F493
:100B30004C2F0E9452054D2F609133038091310359
:100B40000E9452050F5F1F4FE6CF40E00E94520502
:100B500040E0F2CF60E0809132030E94790461E0CE
:100B6000809132030E947904F701EF5CFC4FD4833B
:100B7000DF91CF911F910F91FF90EF90DF90CF9079
:100B800008952F923F924F925F926F927F928F9231
:100B90009F92AF92BF92CF92DF92EF92FF920F930C
:100BA0001F93CF93DF9300D000D01F92CDB7DEB755
:100BB0006C0180918A02282F30E03A8329832090AB
:100BC0008B02312C38E02316310409F475C0C601BC
:100BD0008F5C9C4F9F838E838AE8882E82E0982EBC
:100BE0008601412C512C32014394C8018C199D0976
:100BF000E981FA818E179F070CF09CC0802F8695A3
:100C000086958695282F30E03C832B83F12CE12CB0
:100C1000802F87708F5F8D83E214F3040CF07FC008
:100C20000035110508F077C038E0E316F1040CF048
:100C300072C0D301C2010E2C04C0880F991FAA1FD5
:100C4000BB1F0A94D2F7EE81FF814481F401228117
:100C500030E00E2C02C0359527950A94E2F720FF6C
:100C600048C0842BEE81FF81848360E08091320351
:100C70000E947904B12CA12C809134038A151B04A5
:100C800009F00CF43EC060913303809131032B8155
:100C90003C812A153B0581F54D810E945205EE816C
:100CA000FF81448160913303809131030E9452059A
:100CB000FFEFAF1ABF0AE0CF1C821B82E981FA81E5
:100CC0002B813C812E173F07ACF5C9018C0D9D1D72
:100CD0008035910540F4F901E657FD4F6281822F7E
:100CE0008C0D0E9471058B819C8101969C838B8366
:100CF000E5CF80958423B6CF40E00E94520540E0C6
:100D0000D1CF60E0809132030E94790461E080914C
:100D100032030E9479042FEFE21AF20A7DCF0F5FAF
:100D20001F4F8E819F8101969F838E839FEF891A2B
:100D3000990A5BCF27960FB6F894DEBF0FBECDBFE2
:100D4000DF91CF911F910F91FF90EF90DF90CF90A7
:100D5000BF90AF909F908F907F906F905F904F90DB
:100D60003F902F900895CF92DF92EF92FF920F93D2
:100D70001F93CF9301E313E0C1E060E08091320361
:100D80000E9479047801D12CC12C809134038C15F8
:100D90001D04B9F0B4F04C2F6091330380913103FE
:100DA0000E945205F7014481609133038091310321
:100DB0000E945205FFEFCF1ADF0A88E0E80EF11C0F
:100DC000E4CF60E0809132030E94790461E0809179
:100DD00032030E9479040F5F1F4FCF5FC93069F65D
:100DE000CF911F910F91FF90EF90DF90CF900895DA
:100DF000CF92DF92EF92FF920F931F93CF93DF93E7
:100E0000C1E0D0E060E0809132030E9479046E017D
:100E100081E0C81AD10801E313E0F12CE12C8091A4
:100E200034038E151F04B9F0B4F04C2F60913303D6
:100E3000809131030E94520540E06091330380911C
:100E400031030E945205F8011482FFEFEF1AFF0AE6
:100E50000C0D1D1DE4CF60E0809132030E947904E7
:100E600061E0809132030E9479042196C930D10556
:100E700049F6E5E3F3E085E893E011928E179F07CA
:100E8000E1F7DF91CF911F910F91FF90EF90DF90ED
:100E9000CF9008950F931F93CF93DF93082F162FB2
:100EA00060E0809132030E947904D0E0C0E080913C
:100EB00034038C171D0689F084F0402F60913303B2
:100EC000809131030E945205412F6091330380913C
:100ED00031030E9452052196EACF60E080913203EF
:100EE0000E94790461E080913203DF91CF911F91DC
:100EF0000F910C947904EF92FF920F931F93CF936D
:100F0000DF93EC017B018A0188819981009729F0A8
:100F10002A813B812417350788F4B8016F5F7F4F22
:100F20000E94770D009791F0998388831B830A8331
:100F30002C813D81232B11F4FC0110821D830C8335
:100F4000B701888199810E94610E0CC088819981C6
:100F5000009711F00E94EE0C198218821D821C82EB
:100F60001B821A82CE01DF91CF911F910F91FF90CA
:100F7000EF9008958F929F92AF92BF92DF92EF927F
:100F8000FF920F931F93CF93DF9300D000D0CDB784
:100F9000DEB78C014B011A8219821C821B821E82D1
:100FA0001D82FC0101900020E9F73197AF01481B39
:100FB000590BBC01CE0101960E947B07F12CE12C5C
:100FC00087E0D82E092C000CAA08BB08F8018191F3
:100FD0008F01882369F18D819E81E816F90620F43E
:100FE000E981FA81309709F510926402E4E6F2E0B3
:100FF00060816032B4F060526D9DB0011124685B75
:101000007E4F47E050E08AE892E00E94190C89E0A8
:1010100090E00E94C105C501B4010E94FD040E9438
:10102000F806FFEFEF1AFF0AD1CFEE0DFF1DE0CF5C
:1010300089819A81009711F00E94EE0C26960FB6D6
:10104000F894DEBF0FBECDBFDF91CF911F910F91FE
:10105000FF90EF90DF90BF90AF909F908F9008959A
:101060009F92AF92BF92CF92DF92EF92FF920F9337
:101070001F93CF93DF93EC0187E0982E6B01770FDE
:10108000EE08FF0805E313E06991662381F1603201
:10109000DCF36052699DB0011124685B7E4F47E02C
:1010A00050E08AE892E00E94190C82E090E00E94F1
:1010B000C10580918A0260E08E5F0E947105B12CAB
:1010C000A12C80918A028A151B04F4F2C701B60193
:1010D0000E94FD04E4E8F3E0829181830E171F076C
:1010E000D9F70E94B3068FEFA81AB80AEACFDF91AA
:1010F000CF911F910F91FF90EF90DF90CF90BF9015
:10110000AF909F900895BF92CF92DF92EF92FF929F
:101110000F931F93CF93DF93EC0187E0B82E6B0101
:10112000770FEE08FF086991662381F16032DCF3E6
:1011300060526B9DB0011124685B7E4F47E050E028
:101140008AE892E00E94190C80E290E00E94C105BA
:1011500080918A0260E0805E0E94710510E000E0EC
:1011600080918A0280171106F4F2C701B6010E942D
:10117000FD04E5E3F3E08181819383E0E538F8073E
:10118000D1F70E94B3060F5F1F4FEACFDF91CF91D7
:101190001F910F91FF90EF90DF90CF90BF90089537
:1011A0001F920F920FB60F9211240BB60F922F932E
:1011B0003F934F935F936F937F938F939F93AF93DF
:1011C000BF93EF93FF9384E992E00E942903FF917C
:1011D000EF91BF91AF919F918F917F916F915F91AF
:1011E0004F913F912F910F900BBE0F900FBE0F901C
:1011F0001F9018951F920F920FB60F9211240BB6E5
:101200000F922F938F939F93EF93FF93E091A402FC
:10121000F091A5028081E091AA02F091AB0282FDDB
:101220001DC090818091AD028F5F8F732091AE02BF
:10123000821741F0E091AD02F0E0EC56FD4F958F42
:101240008093AD02FF91EF919F918F912F910F901D
:101250000BBE0F900FBE0F901F9018958081F2CF9C
:101260001F920F920FB60F9211242F933F938F93DB
:101270009F93AF93BF9380916A0290916B02A0916C
:101280006C02B0916D023091650223E0230F2D377F
:1012900058F50196A11DB11D2093650280936A0245
:1012A00090936B02A0936C02B0936D0280916602E2
:1012B00090916702A0916802B09169020196A11D08
:1012C000B11D8093660290936702A0936802B09369
:1012D0006902BF91AF919F918F913F912F910F9094
:1012E0000FBE0F901F90189526E8230F0296A11DA0
:1012F000B11DD2CF109297021092960288EE93E021
:10130000A0E0B0E08093980290939902A0939A0293
:10131000B0939B0282E592E09093950280939402B1
:1013200085EC90E09093A1028093A00284EC90E081
:101330009093A3028093A20280EC90E09093A50288
:101340008093A40281EC90E09093A7028093A60280
:1013500082EC90E09093A9028093A80286EC90E042
:101360009093AB028093AA021092AD021092AE024B
:101370001092AF021092B0028CE0809331038AE0A9
:10138000809332038BE08093330382E080933403B5
:10139000E5E3F3E085E893E011928E179F07E1F70C
:1013A0000895CF93DF9300D000D0CDB7DEB7789407
:1013B00084B5826084BD84B5816084BD85B582605A
:1013C00085BD85B5816085BD80916E00816080930B
:1013D0006E00109281008091810082608093810074
:1013E0008091810081608093810080918000816084
:1013F000809380008091B10084608093B1008091DF
:10140000B00081608093B0008091910082608093F1
:101410009100809191008160809391008091900073
:101420008160809390008091A10082608093A100F0
:101430008091A10081608093A1008091A0008160D3
:101440008093A0008091210182608093210180918E
:10145000210181608093210180912001816080932E
:10146000200180917A00846080937A0080917A00D4
:10147000826080937A0080917A00816080937A0004
:1014800080917A00806880937A001092C10061E0B8
:10149000809131030E94A70461E0809133030E9490
:1014A000A70461E0809132030E94A70461E080916B
:1014B00033030E94790467E08BE00E944A0760E0F2
:1014C00089E00E944A0761E08CE00E944A0760E0E0
:1014D0008FE00E944A070E94F8066FE08AE00E94AF
:1014E0004A076FE08AE00E944A07E091A402F09167
:1014F000A50282E08083E091A002F091A102108217
:10150000E091A202F091A3028FEC80831092AC02D2
:10151000E091A802F091A90286E08083E091A60202
:10152000F091A702808180618083E091A602F09112
:10153000A702808188608083E091A602F091A702D3
:10154000808180688083E091A602F091A70280816B
:101550008F7D808387E390E0909389028093880257
:1015600060E087E00E94A70460E086E00E94A70494
:1015700060E085E00E94A70400E412E06EE4C62E5D
:1015800062E0D62EF801F0800E5F1F4F61E08F2DD4
:101590000E94A70460E08F2D0E947904C016D10636
:1015A00089F74AE0642E712C52E8852E52E0952E80
:1015B00080918802863308F0865320917B00982F13
:1015C0009870277F922B90937B0087708064809324
:1015D0007C0080917A00806480937A0080917A0008
:1015E00086FDFCCF9091780080917900892798271B
:1015F0008927B3010E94220C6531710508F0ACC047
:101600008CE192E00E94300504EF11E085E00E9439
:1016100050045C01909387028093860287E00E94C9
:1016200050046C01909385028093840286E00E94AE
:1016300050047C019093830280938202AA94AB2889
:1016400009F0DCC084E992E00E941303892B09F4BD
:10165000BDC03EE6E32E32E0F32E2FB7F894809122
:101660006A0290916B02A0916C02B0916D022FBF43
:1016700080939C0290939D02A0939E02B0939F0240
:1016800084E992E00E94F10297FFC7C02FB7F89457
:1016900080916A0290916B02A0916C02B0916D02F0
:1016A0002FBF40919C0250919D0260919E027091CB
:1016B0009F02841B950BA60BB70B4091980250918B
:1016C000990260919A0270919B0284179507A60770
:1016D000B707B0F21A8219821C821B821E821D82F9
:1016E0004EE652E0FA0101900020E9F7AF014F56B3
:1016F00052406EE672E0CE0101960E947B074D815A
:101700005E8169817A8184E992E00E94B50242E0BB
:1017100050E060E672E084E992E00E94B5028091B8
:10172000840290918502019709F03FC0B801759538
:1017300067958EE692E00E94BA0789819A810097A8
:1017400011F00E94EE0C68EE73E080E090E00E94E1
:10175000FD040E94B8032CCFCB014597449738F481
:1017600085E192E00E94300500E911E04FCFCB0106
:101770008997449738F48EE092E00E9430050CE29D
:1017800011E044CF6D5371096431710538F487E07D
:1017900092E00E94300508EC10E038CF80E092E043
:1017A0000E94300504E610E031CF809182029091D2
:1017B0008302B801019729F48EE692E00E94830823
:1017C000BCCF8EE692E00E943008B7CFB801CA9431
:1017D000CD2839F4759567958EE692E00E94BA0798
:1017E000B2CFEA94EF2829F48EE692E00E948308B3
:1017F000AACF8EE692E00E943008A5CFB801CA9425
:10180000CD2829F47595679583E292E0E7CF83E2CE
:1018100092E0EA94EF2879F7E9CF8A30910509F44C
:1018200059CFF70181937F018E169F0609F015CFDE
:1018300051CFFB01DC0102C005900D924150504098
:10184000D8F7089597FB072E16F4009407D077FD7C
:1018500009D00E943E0C07FC05D03EF4909581957E
:101860009F4F0895709561957F4F0895EE0FFF1F6C
:10187000881F8BBF0790F691E02D1994AA1BBB1B04
:1018800051E107C0AA1FBB1FA617B70710F0A61B80
:10189000B70B881F991F5A95A9F780959095BC01A1
:1018A000CD0108950F931F93CF93DF93823091055D
:1018B00010F482E090E0E0918703F091880330E03B
:1018C00020E0B0E0A0E0309799F42115310509F44B
:1018D0004AC0281B390B24303105D8F58A819B81F9
:1018E0006115710589F1FB0193838283FE0111C0AB
:1018F000408151810281138148175907E0F0481750
:10190000590799F4109761F012960C931297139659
:101910001C933296CF01DF91CF911F910F910895C3
:101920000093870310938803F4CF2115310551F0FC
:101930004217530738F0A901DB019A01BD01DF010D
:10194000F801C1CFEF01F9CF90938803809387030B
:10195000CDCFFE01E20FF31F819391932250310905
:1019600039832883D7CF2091850330918603232B99
:1019700041F420913C0230913D0230938603209344
:10198000850320913A0230913B022115310541F443
:101990002DB73EB740913E0250913F02241B350BBC
:1019A000E0918503F0918603E217F307A0F42E1B64
:1019B0003F0B2817390778F0AC014E5F5F4F2417B3
:1019C000350748F04E0F5F1F509386034093850301
:1019D000819391939FCFF0E0E0E09CCFCF93DF9392
:1019E0000097E9F0FC01329713821282A0918703DD
:1019F000B0918803ED0130E020E01097A1F4208140
:101A00003181820F931F209185033091860328171F
:101A1000390709F061C0F0938603E0938503DF91F5
:101A2000CF910895EA01CE17DF07E8F54A815B817F
:101A30009E0141155105B1F7E901FB83EA83499104
:101A40005991C40FD51FEC17FD0761F48081918176
:101A50000296840F951FE90199838883828193817F
:101A60009B838A83F0E0E0E012968D919C9113971E
:101A70000097B9F52D913C911197CD010296820FF7
:101A8000931F20918503309186032817390739F673
:101A9000309751F51092880310928703B093860314
:101AA000A0938503BCCFD383C28340815181840F2F
:101AB000951FC817D90761F44E5F5F4F88819981E0
:101AC000480F591F518340838A819B81938382836E
:101AD0002115310509F0B0CFF0938803E093870317
:101AE0009ECFFD01DC01C0CF13821282D7CF4F926F
:101AF0005F926F927F928F929F92AF92BF92CF929E
:101B0000DF92EF92FF920F931F93CF93DF938C019D
:101B1000009799F4CB01DF91CF911F910F91FF9026
:101B2000EF90DF90CF90BF90AF909F908F907F907D
:101B30006F905F904F900C94520CFC01E60FF71FD2
:101B40009C0122503109E217F30708F4AEC0D90115
:101B5000CD91DC911197C617D70720F1C530D1057B
:101B600078F0CE0104978617970750F0C61BD70B65
:101B70002297C193D1936D937C93CF010E94EE0C79
:101B8000C801DF91CF911F910F91FF90EF90DF90EF
:101B9000CF90BF90AF909F908F907F906F905F900D
:101BA0004F9008955B01AC1ABD0A4C018C0E9D1E2E
:101BB000A0918703B0918803512C412CF12CE12C8A
:101BC000109731F5809185039091860388159905CA
:101BD00009F05CC04616570608F058C080913A02DA
:101BE00090913B02009741F48DB79EB740913E0221
:101BF00050913F02841B950BE817F90708F055C078
:101C0000F0938603E0938503F90171836083B8CF75
:101C10008D919C91119712966C90129713967C90CF
:101C20001397A815B90559F56C0142E0C40ED11CF3
:101C3000CA14DB0420F1AC014A195B09DA011296DF
:101C4000159780F06282738251834083D9016D932E
:101C50007C93E114F10471F0D7011396FC93EE9399
:101C600012978ECF22968C0F9D1FF901918380834E
:101C7000F301EFCFF0938803E093870381CF4816F9
:101C8000590608F42C017D01D3019ACFCB010E94A3
:101C9000520C7C01009749F0AE01B8010E94580E29
:101CA000C8010E94EE0C87016BCF10E000E068CF06
:101CB000FB01DC0102C001900D9241505040D8F769
:101CC0000895FB01DC0101900D920020E1F70895D9
:101CD000F894FFCF010001010001010001010000A3
:101CE00001010101010100000101010001010001E8
:101CF000000101000000002A50315F475255504F4B
:101D000031382D53454343494F4E20412A000000AE
:101D10008903800016001700180019001A001B0024
:101D20001C00000000004B03B502E20298031303FD
:081D3000F10205030D0A000099
:020000040003F7
:10E000000D9489F10D94B2F10D94B2F10D94B2F129
:10E010000D94B2F10D94B2F10D94B2F10D94B2F1F0
:10E020000D94B2F10D94B2F10D94B2F10D94B2F1E0
:10E030000D94B2F10D94B2F10D94B2F10D94B2F1D0
:10E040000D94B2F10D94B2F10D94B2F10D94B2F1C0
:10E050000D94B2F10D94B2F10D94B2F10D94B2F1B0
:10E060000D94B2F10D94B2F10D94B2F10D94B2F1A0
:10E070000D94B2F10D94B2F10D94B2F10D94B2F190
:10E080000D94B2F10D94B2F10D94B2F10D94B2F180
:10E090000D94B2F10D94B2F10D94B2F10D94B2F170
:10E0A0000D94B2F10D94B2F10D94B2F10D94B2F160
:10E0B0000D94B2F10D94B2F10D94B2F10D94B2F150
:10E0C0000D94B2F10D94B2F10D94B2F10D94B2F140
:10E0D0000D94B2F10D94B2F10D94B2F10D94B2F130
:10E0E0000D94B2F141546D656761323536300041AF
:10E0F000726475696E6F206578706C6F72657220DE
:10E1000073746B3530305632206279204D4C530099
:10E11000426F6F746C6F616465723E004875683F52
:10E1200000436F6D70696C6564206F6E203D200048
:10E130004350552054797065202020203D20005FF9
:10E140005F4156525F415243485F5F3D2000415658
:10E1500052204C696243205665723D20004743437C
:10E160002056657273696F6E203D20004350552024
:10E1700049442020202020203D20004C6F7720663D
:10E18000757365202020203D20004869676820665F
:10E190007573652020203D200045787420667573D6
:10E1A00065202020203D20004C6F636B2066757336
:10E1B000652020203D20004D617220203720323024
:10E1C000313300312E362E3800342E332E350056A2
:10E1D00023202020414444522020206F7020636F70
:10E1E00064652020202020696E73747275637469E1
:10E1F0006F6E2061646472202020496E74657272B3
:10E20000757074006E6F20766563746F7200726A49
:10E210006D702020006A6D70200057686174207056
:10E220006F72743A00506F7274206E6F7420737541
:10E2300070706F72746564004D7573742062652030
:10E2400061206C6574746572002000577269747483
:10E25000696E672045450052656164696E672045B7
:10E26000450045452065727220636E743D00504F35
:10E27000525400303D5A65726F2061646472003FF1
:10E280003D43505520737461747300403D454550C3
:10E29000524F4D207465737400423D426C696E6B41
:10E2A000204C454400453D44756D70204545505215
:10E2B0004F4D00463D44756D7020464C415348001B
:10E2C000483D48656C70004C3D4C69737420492F83
:10E2D0004F20506F72747300513D51756974005234
:10E2E0003D44756D702052414D00563D73686F7707
:10E2F00020696E7465727275707420566563746FF0
:10E30000727300593D506F727420626C696E6B00BD
:10E310002A0011241FBECFEFD1E2DEBFCDBF01E046
:10E320000CBF12E0A0E0B2E0EEE1FDEF03E00BBFB6
:10E3300002C007900D92A030B107D9F712E0A0E01B
:10E34000B2E001C01D92AE30B107E1F70F9460F367
:10E350000D948DFE01E20EBF0FEF0DBF11241FBE05
:10E360000D9460F30D9400F020E030E040ED57E0B4
:10E3700005C0FA013197F1F72F5F3F4F2817390792
:10E38000C0F308959C01260F311DC901A0E0B0E043
:10E390002F5F3F4FABBFFC018791882361F08093D3
:10E3A000C6008091C00086FFFCCF8091C0008064D1
:10E3B0008093C000EACF08958DE08093C6008091DD
:10E3C000C00086FFFCCF8091C00080648093C000B5
:10E3D0008AE08093C6008091C00086FFFCCF8091C8
:10E3E000C00080648093C00008950F94C2F10F9420
:10E3F000DCF10895FC019081992359F09093C600B7
:10E400008091C00086FFFCCF8091C0008064809323
:10E41000C0003196992379F70895282F982F929567
:10E420009F70892F805D8A3308F0895F8093C600D2
:10E430008091C00086FFFCCF8091C00080648093F3
:10E44000C000822F8F70982F905D9A3308F0995FEB
:10E450009093C6008091C00086FFFCCF8091C000E1
:10E4600080648093C00008959C01FB01853691056E
:10E470001CF46330710594F0C90164E670E00F94F8
:10E480002EFE605D7F4F6093C6008091C00086FFC6
:10E49000FCCF8091C00080648093C0002B30310598
:10E4A00014F43297B4F0C90164E670E00F942EFEC4
:10E4B0006AE070E00F942EFE605D7F4F6093C600AF
:10E4C0008091C00086FFFCCF8091C0008064809363
:10E4D000C000C9016AE070E00F942EFEC0968093E0
:10E4E000C6008091C00086FFFCCF8091C000806490
:10E4F0008093C00008951F93182F8EE692EE60E07F
:10E500000F94C2F11093C6008091C00086FFFCCF2B
:10E510008091C00080648093C0000F94DCF11F9153
:10E5200008952F923F924F925F926F927F928F92B7
:10E530009F92AF92BF92CF92DF92EF92FF920F9392
:10E540001F93DF93CF93CDB7DEB762970FB6F894E2
:10E55000DEBF0FBECDBF382E622ECA01DB015C01CB
:10E560006D01772420E2222E2E010894411C511CBB
:10E570008BC081E0A81680E0B80681E0C80680E084
:10E58000D80628F0C601AA27BB270F940DF2BB2797
:10E59000AD2D9C2D8B2D0F940DF28A2D0F940DF225
:10E5A0002092C6008091C00086FFFCCF8091C00001
:10E5B00080648093C0009DE29093C6008091C0006B
:10E5C00086FFFCCF8091C00080648093C0002092C1
:10E5D000C6008091C00086FFFCCF8091C00080649F
:10E5E0008093C00019828601750188249924A1E0D6
:10E5F0003A1651F03A1620F0B2E03B1661F409C029
:10E600000BBFF701779007C0C7010F9477FE782EF4
:10E6100002C0F7017080872D0F940DF22092C60082
:10E620008091C00086FFFCCF8091C0008064809301
:10E63000C000872D8052F401EF70F0708F3520F408
:10E64000E40DF51D708204C0E40DF51D8EE280839B
:10E650000894E11CF11C011D111D0894811C911CE2
:10E6600090E18916910409F0C2CF80E190E0A0E02A
:10E67000B0E0A80EB91ECA1EDB1E198AC2010F9493
:10E68000FAF10F94DCF16A94662009F072CF629679
:10E690000FB6F894DEBF0FBECDBFCF91DF911F91B3
:10E6A0000F91FF90EF90DF90CF90BF90AF909F9031
:10E6B0008F907F906F905F904F903F902F90089534
:10E6C0002F923F924F925F926F927F928F929F9282
:10E6D000AF92BF92CF92DF92EF92FF920F931F9370
:10E6E000DF93CF93CDB7DEB7CD53D1400FB6F894BB
:10E6F000DEBF0FBECDBF01E20EBF0FEF0DBF94B75F
:10E70000F894A89514BE80916000886180936000A1
:10E7100010926000789493FF05C0E0910002F091A0
:10E7200001021995279A2F9A8091C00082608093E8
:10E73000C00080E18093C40088E18093C1000000A4
:10E74000EE24FF24870144E0A42EB12CCC24DD2448
:10E7500024C0C5010197F1F70894E11CF11C011DCB
:10E76000111D21E2E2162EE4F20620E0020720E06D
:10E77000120718F031E0C32ED12CC801B70127ECE5
:10E780003BE140E050E00F9441FE611571058105C9
:10E79000910519F485B1805885B98091C00087FD35
:10E7A00003C0C114D104A9F2A6014F5F5F4FC25E3E
:10E7B000DE4F59834883CE51D140C25EDE4F8881FF
:10E7C0009981CE51D140019711F00D9410FEC05D9A
:10E7D000DE4F19821882C053D14060E0C15DDE4F28
:10E7E0001882CF52D14088249924C35DDE4F19820C
:10E7F0001882CD52D140C05EDE4F188219821A8233
:10E800001B82C052D140CE5CDE4F188219821A8220
:10E810001B82C253D140EE24FF2487010BBFF701B6
:10E8200007911691C45CDE4F19830883CC53D14005
:10E830000D940BFEC25EDE4F28813981CE51D1404E
:10E840002130310509F52091C600C25EDE4F1982E4
:10E850001882CE51D14022C02F5F3F4F4F4F5F4FA4
:10E86000213082E138078AE7480780E0580780F0C6
:10E87000C45CDE4FE881F981CC53D140EF5FFF4F9C
:10E8800019F0EE27FF27099420E030E040E050E047
:10E890008091C00087FFE0CF2091C600C35DDE4FAE
:10E8A00048815981CD52D1404F5F5F4FC35DDE4FEC
:10E8B00059834883CD52D140213209F063C64A3092
:10E8C000510508F05FC60894811C911C53E0851621
:10E8D000910409F059C600E010E018C081E280936D
:10E8E000C6008091C00086FFFCCF8091C00080648C
:10E8F0008093C0002F5F3F4F2931310579F70F9486
:10E90000DCF10F5F1F4F0530110519F020E030E0FA
:10E91000E5CF10920A0210920B0210920C02109294
:10E920000D02109206021092070210920802109235
:10E930000902109202021092030210920402109235
:10E9400005028FEE90EE60E00F94F5F180E191EE1C
:10E9500060E00F94C2F18091C00087FFFCCF9091DE
:10E96000C600903608F09F759032B8F09093C600BC
:10E970008091C00086FFFCCF8091C00080648093AE
:10E98000C000A0E2A093C6008091C00086FFFCCF2B
:10E990008091C00080648093C000983409F4D7C18E
:10E9A0009934B8F4923409F459C1933458F490333B
:10E9B00019F1903308F4E3C59F33A1F1903409F0C5
:10E9C000DEC5BDC0953409F470C1963409F0D7C5D1
:10E9D00098C1923509F42BC2933538F49C3409F46C
:10E9E000F5C1913509F0CBC518C2963509F445C279
:10E9F000993509F0C4C567C483E792EE62E00F94CD
:10EA0000F5F110920602109207021092080210927D
:10EA1000090210920A0210920B0210920C0210923C
:10EA20000D0213C18FE792EE62E00F94F5F18FEEC5
:10EA300090EE60E00F94F5F181E291EE60E00F94CA
:10EA4000C2F187EB91EE60E00F94F5F180E391EE77
:10EA500060E00F94C2F184EE90EE60E00F94F5F167
:10EA60008FE391EE60E00F94C2F186E090E061E008
:10EA700070E00F9434F20F94DCF18DE591EE60E0DC
:10EA80000F94C2F189EC91EE60E00F94F5F18EE401
:10EA900091EE60E00F94C2F183EC91EE60E00F9490
:10EAA000F5F18CE691EE60E00F94C2F18EE10F94E7
:10EAB0000DF288E90F940DF281E00F940DF20F949E
:10EAC000DCF18BE791EE60E00F94C2F119E0E0E039
:10EAD000F0E010935700E4918E2F0F940DF20F94F5
:10EAE000DCF18AE891EE60E00F94C2F1E3E0F0E03F
:10EAF00010935700E4918E2F0F940DF20F94DCF1D8
:10EB000089E991EE60E00F94C2F1E2E0F0E0109349
:10EB10005700E4918E2F0F940DF20F94DCF188EAE8
:10EB200091EE60E00F94C2F1E1E0F0E01093570045
:10EB30001491812F0F940DF20F94DCF107CF8BE825
:10EB400092EE62E00F94F5F18BE492EE60E00F94A8
:10EB5000F5F10F94DCF100E010E019C0C8016F2D51
:10EB60000F947FFEFF2031F489E492EE60E00F9471
:10EB7000C2F10BC0F092C6008091C00086FFFCCFAE
:10EB80008091C00080648093C0000F5F1F4FC80158
:10EB900081519F41A0E0B0E0ABBFFC01F790BAE229
:10EBA000FB1621F0E2E000301E07C1F60F94DCF105
:10EBB0000F94DCF187E592EE60E00F94F5F10F948D
:10EBC000DCF1CC24DD2400E010E01EC0C8010F946D
:10EBD00077FEF82E882331F489E492EE60E00F94FA
:10EBE000C2F10BC08093C6008091C00086FFFCCFAD
:10EBF0008091C00080648093C000FE1419F00894D6
:10EC0000C11CD11C0F5F1F4FC80181519F41A0E063
:10EC1000B0E0ABBFFC01E790FAE2EF1621F022E092
:10EC20000030120799F60F94DCF10F94DCF182E6C4
:10EC300092EE60E00F94C2F1C60161E070E00F94C3
:10EC400034F20F94DCF10F94DCF110920202109276
:10EC50000302109204021092050278CE89E992EE26
:10EC600062E00F94F5F1279A2F9A16C02F9880E052
:10EC700090E0E0EDF7E03197F1F7019684369105E9
:10EC8000C1F72F9A80E090E0E0EDF7E03197F1F7DF
:10EC9000019684369105C1F78091C00087FFE6CFC9
:10ECA0008091C00087FFFCCF64C485EA92EE62E0E9
:10ECB0000F94F5F140910202509103026091040219
:10ECC0007091050281E020E10F9491F2809102029F
:10ECD00090910302A0910402B091050280509F4FD1
:10ECE000AF4FBF4F8093020290930302A0930402A0
:10ECF000B093050280509041A040B04008F426CE69
:10ED0000A4CF83EB92EE62E00F94F5F140910602FE
:10ED100050910702609108027091090280E020E1A1
:10ED20000F9491F28091060290910702A09108023F
:10ED3000B091090280509F4FAF4FBF4F80930602A2
:10ED400090930702A0930802B0930902FFCD80ECD4
:10ED500092EE62E00F94F5F183E792EE60E00F949B
:10ED6000F5F18FE792EE60E00F94F5F18BE892EE0B
:10ED700060E00F94F5F189E992EE60E00F94F5F10F
:10ED800085EA92EE60E00F94F5F183EB92EE60E09D
:10ED90000F94F5F180EC92EE60E00F94F5F187ECC2
:10EDA00092EE60E00F94F5F188ED92EE60E00F9442
:10EDB000F5F18FED92EE60E00F94F5F18AEE92EEB0
:10EDC00060E00F94F5F183E093EEBDCD87EC92EE19
:10EDD00062E00F94F5F181E40F947BF282E40F94EA
:10EDE0007BF283E40F947BF284E40F947BF285E45E
:10EDF0000F947BF286E40F947BF287E40F947BF20E
:10EE000088E40F947BF28AE40F947BF28BE40F94F6
:10EE10007BF28CE40F947BF299CD88ED92EE62E068
:10EE20000F94F5F1772473948824992409C48FED05
:10EE300092EE62E00F94F5F140910A0250910B02BC
:10EE400060910C0270910D0282E020E10F9491F22A
:10EE500080910A0290910B02A0910C02B0910D02D8
:10EE600080509F4FAF4FBF4F80930A0290930B0289
:10EE7000A0930C02B0930D0269CD8AEE92EE62E08F
:10EE80000F94F5F184EE90EE60E00F94F5F18FECC5
:10EE900091EE60E00F94F5F1662477244301CC5D98
:10EEA000DE4F19821882C452D140D401C301B695F5
:10EEB000A79597958795CA5DDE4F88839983AA8326
:10EEC000BB83C652D140CC5DDE4FA881B981C4520C
:10EED000D1401196CC5DDE4FB983A883C452D14096
:10EEE000CD0162E070E00F9434F2B0E2B093C6005E
:10EEF0008091C00086FFFCCF8091C0008064809329
:10EF0000C000EDE2E093C6008091C00086FFFCCF18
:10EF10008091C00080648093C000F0E2F093C6004E
:10EF20008091C00086FFFCCF8091C00080648093F8
:10EF3000C000CA5DDE4FE880F9800A811B81C6529D
:10EF4000D140BB27A12F902F8F2D0F940DF2CA5DBA
:10EF5000DE4F8881C652D1400F940DF2B0E2FB2EF5
:10EF6000F092C6008091C00086FFFCCF8091C00067
:10EF700080648093C0000DE30093C6008091C000C0
:10EF800086FFFCCF8091C00080648093C00010E2B7
:10EF90001093C6008091C00086FFFCCF8091C00016
:10EFA00080648093C0008BBEF3012791C65DDE4F65
:10EFB0002883CA52D140A22EBB24CC24DD2408943D
:10EFC000611C711C811C911C8BBEF3018791282E42
:10EFD0003324442455240894611C711C811C911C09
:10EFE0008BBEF3013791C55DDE4F3883CB52D140E4
:10EFF0000894611C711C811C911C8BBEF30147910C
:10F00000C45DDE4F4883CC52D140ADEFEA2EAFEF66
:10F01000FA2EAFEF0A2FAFEF1A2F6E0C7F1C801E57
:10F02000911E142D032DF22CEE24EA0CFB1C0C1D5A
:10F030001D1D0F940DF220E22093C6008091C000A8
:10F0400086FFFCCF8091C00080648093C000C65DC5
:10F05000DE4F8881CA52D1400F940DF230E23093D6
:10F06000C6008091C00086FFFCCF8091C000806404
:10F070008093C000C45DDE4F8881CC52D1400F9494
:10F080000DF240E24093C6008091C00086FFFCCFA5
:10F090008091C00080648093C000C55DDE4F888190
:10F0A000CB52D1400F940DF250E25093C6008091A4
:10F0B000C00086FFFCCF8091C00080648093C000B8
:10F0C0008FEFE8168FEFF80680E0080780E018075A
:10F0D00031F484E092EE60E00F94C2F1DFC0D80119
:10F0E000C7018070907CA070B0708050904CA040A0
:10F0F000B040D1F52FEF3FE340E050E0E222F322B1
:10F1000004231523CA5DDE4FA880B980CA80DB8046
:10F11000C652D140AE0CBF1CC01ED11EAA0CBB1CD7
:10F12000CC1CDD1C8EE092EE60E00F94C2F1BB2798
:10F13000A12F902F8F2D0F940DF28E2D0F940DF285
:10F1400030E23093C6008091C00086FFFCCF8091F2
:10F15000C00080648093C0004EE34093C60080915D
:10F16000C00086FFFCCF87C08EE09EEFA0E0B0E03D
:10F17000E822F9220A231B239CE0E91694E9F90608
:10F1800090E0090790E0190709F088C0C45DDE4FE0
:10F19000A881CC52D140EA2EFF2400E010E0102FCD
:10F1A0000F2DFE2CEE24C55DDE4FB881CB52D14031
:10F1B000EB0EF11C011D111DD601C501817090706F
:10F1C000A070B070DC0199278827E80EF91E0A1F8D
:10F1D0001B1F20EF30E040E050E0A222B322C42207
:10F1E000D52241E1AA0CBB1CCC1CDD1C4A95D1F7F1
:10F1F000EA0CFB1C0C1D1D1D81E090E0A0E0B0E0BE
:10F20000282239224A225B2235E1220C331C441C7D
:10F21000551C3A95D1F7E20CF31C041D151D57013E
:10F220006801AA0CBB1CCC1CDD1C85E192EE60E0E1
:10F230000F94C2F1C801AA27BB270F940DF2BB2778
:10F24000A12F902F8F2D0F940DF28E2D0F940DF274
:10F2500090E29093C6008091C00086FFFCCF809121
:10F26000C00080648093C000AEE3A093C60080918C
:10F27000C00086FFFCCF8091C00080648093C000F6
:10F28000C601AA27BB270F940DF2BB27AD2D9C2DDD
:10F290008B2D0F940DF28A2D0F940DF20F94DCF14B
:10F2A000CC5DDE4FE881F981C452D140F99709F471
:10F2B0004DCBF4E0EF2EF12C012D112D6E0C7F1CA7
:10F2C000801E911EF2CD83E093EE62E00F94F5F183
:10F2D0008AE192EE60E00F94C2F18091C00087FF56
:10F2E000FCCF1091C6001F751093C6008091C0001E
:10F2F00086FFFCCF8091C00080648093C0000F9493
:10F30000DCF1812F81548A3108F036C1163409F4BA
:10F3100095C0173490F4133409F44EC0143430F40B
:10F320001134F1F0123409F01DC130C0143409F465
:10F3300059C0153409F016C16BC01A3409F4C4C0A1
:10F340001B3438F4173409F48FC0183409F00AC19B
:10F35000A1C01B3409F4D2C01C3409F003C1E8C0B9
:10F360008FEF81B90DC082B1809582B980E090E0C5
:10F37000E0EDF7E03197F1F70196883C9105C1F790
:10F380008091C00087FFEFCF12B8EFC08FEF84B934
:10F390000DC085B1809585B980E090E0E0EDF7E0A3
:10F3A0003197F1F70196883C9105C1F78091C00033
:10F3B00087FFEFCF15B8D9C08FEF87B90DC088B1DF
:10F3C000809588B980E090E0E0EDF7E03197F1F7C3
:10F3D0000196883C9105C1F78091C00087FFEFCF6F
:10F3E00018B8C3C08FEF8AB90DC08BB180958BB9A7
:10F3F00080E090E0E0EDF7E03197F1F70196883C8E
:10F400009105C1F78091C00087FFEFCF1BB8ADC059
:10F410008FEF8DB90DC08EB180958EB980E090E0F0
:10F42000E0EDF7E03197F1F70196883C9105C1F7DF
:10F430008091C00087FFEFCF1EB897C08FEF80BBD1
:10F440000DC081B3809581BB80E090E0E0EDF7E0F6
:10F450003197F1F70196883C9105C1F78091C00082
:10F4600087FFEFCF11BA81C08FEF83BB0DC084B38C
:10F47000809584BB80E090E0E0EDF7E03197F1F714
:10F480000196883C9105C1F78091C00087FFEFCFBE
:10F4900014BA6BC08FEF809301010FC080910201FD
:10F4A00080958093020180E090E0E0EDF7E03197F5
:10F4B000F1F70196883C9105C1F78091C00087FF64
:10F4C000EDCF1092020151C08FEF809304010FC065
:10F4D0008091050180958093050180E090E0E0ED4A
:10F4E000F7E03197F1F70196883C9105C1F78091DB
:10F4F000C00087FFEDCF1092050137C08FEF8093DA
:10F5000007010FC08091080180958093080180E079
:10F5100090E0E0EDF7E03197F1F70196883C910536
:10F52000C1F78091C00087FFEDCF109208011DC088
:10F530008FEF80930A010FC080910B01809580931B
:10F540000B0180E090E0E0EDF7E03197F1F70196F4
:10F55000883C9105C1F78091C00087FFEDCF1092E4
:10F560000B0103C085E292EEEEC98091C00087FFD7
:10F57000FCCF8091C600EAC988E392EEE4C98CE131
:10F5800091EEE1C988249924933011F1943028F444
:10F59000913089F09230B8F408C0953061F195301F
:10F5A000F0F0963009F048C043C02B3109F042C951
:10F5B00091E06BE13FC96227C15DDE4F2883CF52E6
:10F5C000D14092E037C9B22FA0E0622793E032C960
:10F5D000822F90E0A82BB92B622794E02BC92E3004
:10F5E00009F039C3622795E0C05DDE4F19821882A9
:10F5F000C053D1401FC9E1E0F0E0EC0FFD1FC05D3A
:10F60000DE4F08811981C053D140E00FF11F2083E4
:10F610000F5F1F4FC05DDE4F19830883C053D14079
:10F6200062270A171B0709F005C9D80196E002C92D
:10F63000261709F010C303C0973009F0FBC87724E0
:10F640009981933109F412C19431C8F4963009F4C8
:10F65000D8C0973050F4923009F406C1933009F4C1
:10F660006DC0913009F059C253C0913109F477C08F
:10F67000923108F0BBC0903109F04FC2F5C098310B
:10F6800009F487C0993150F4953109F4EFC09531F0
:10F6900008F4C6C1963109F040C2C2C19A3109F4DA
:10F6A0006CC09A3108F491C09B3109F45BC09D3164
:10F6B00009F033C29D81903359F48F81882311F46E
:10F6C0009EE11CC0813011F091E018C098E916C08D
:10F6D000892F807591F0903539F4E0E0F0E089E011
:10F6E0008093570094910AC0983539F4E3E0F0E034
:10F6F00089E080935700949101C090E01A821B82A8
:10F700008D818C831D829E831F8227E030E009C299
:10F710001A8288E08B8381E48C8386E58D8382E581
:10F720008E8389E48F8383E5888780E589878FE5E9
:10F730008A8782E38B872BE030E0F3C18A818139AD
:10F7400041F0823941F0803911F48FE005C080E04A
:10F7500003C082E001C08AE01A828B8344C0772410
:10F76000739482C08D81882311F48EE12CC0813086
:10F7700011F081E028C088E926C01A82E1E0F0E0BB
:10F7800089E08093570084918B831C8224E030E0D1
:10F79000C8C18B81803589F48C81883039F4E2E0EE
:10F7A000F0E089E08093570084910DC0E0E0F0E044
:10F7B00089E080935700849106C0E3E0F0E089E09F
:10F7C0008093570084911A82DFCF8D81836C99E0FA
:10F7D000E1E0F0E0082E90935700E89507B600FCB2
:10F7E000FDCF1A821B8223E030E09BC180EC8A832C
:10F7F000CE5CDE4F188219821A821B82C253D1401E
:10F800008EC18A8190E0A0E0B0E0582F44273327D2
:10F8100022278B8190E0A0E0B0E0DC0199278827C7
:10F82000282B392B4A2B5B2B8D8190E0A0E0B0E098
:10F83000282B392B4A2B5B2B8C8190E0A0E0B0E089
:10F84000BA2FA92F982F8827282B392B4A2B5B2BCF
:10F85000220F331F441F551FC05EDE4F288339839C
:10F860004A835B83C052D1401A8259C13A81C95C34
:10F87000DE4F3883C753D140CA5CDE4F1882C6536F
:10F88000D1408B81C82EDD24CA5CDE4F488159816E
:10F89000C653D140C42AD52A933109F082C0CE5C28
:10F8A000DE4F88819981AA81BB81C253D1408050AB
:10F8B000904CA340B04030F583E0CE5CDE4FE88052
:10F8C000F9800A811B81C253D140F70100935B008C
:10F8D00080935700E89507B600FCFDCFCE5CDE4F65
:10F8E000088119812A813B81C253D14000501F4FAA
:10F8F0002F4F3F4FCE5CDE4F088319832A833B8313
:10F90000C253D140C05EDE4F488159816A817B81FC
:10F91000C052D140DE011B9631E08C9111962C91A2
:10F9200011971296C75CDE4F2883C953D140C85C3B
:10F93000DE4F1882C853D14090E0C85CDE4FE881AA
:10F94000F981C853D1408E2B9F2B0C01FA01609393
:10F950005B0030935700E89511244E5F5F4F6F4F67
:10F960007F4F0EEFE02E0FEFF02ECE0CDF1CC114F8
:10F97000D10499F685E0C05EDE4F088119812A81A5
:10F980003B81C052D140F80120935B008093570027
:10F99000E89507B600FCFDCF81E180935700E8951C
:10F9A00035C0C05EDE4F88819981AA81BB81C0527B
:10F9B000D140B695A795979587957C018601ABE0D8
:10F9C000AA2EB12CAC0EBD1E0BC0D5016D915D01F0
:10F9D000C7010F947FFE0894E11CF11C01501040F8
:10F9E0000115110591F7A60160E070E0440F551F65
:10F9F000661F771FC05EDE4FE880F9800A811B8199
:10FA0000C052D1404E0D5F1D601F711F1A82C05E33
:10FA1000DE4F488359836A837B83C052D1407FC0C5
:10FA2000FA80C55CDE4FF882CB53D140C65CDE4F16
:10FA30001882CA53D1408B81C82EDD24C65CDE4FAC
:10FA400008811981CA53D140C02AD12A1A828981DA
:10FA5000BE016D5F7F4F843121F59601C05EDE4FA0
:10FA6000E880F9800A811B81C052D1400BBFF701A9
:10FA700087919691DB018C9311969C936E5F7F4FDB
:10FA8000D801C7010296A11DB11DC05EDE4F88835B
:10FA90009983AA83BB83C052D14022503040F1F6F3
:10FAA00036C0C05EDE4F288139814A815B81C052F9
:10FAB000D1400894C108D108760100E010E0089414
:10FAC000C11CD11C0894E11CF11C011D111DE20E8A
:10FAD000F31E041F151F21BDBB27A52F942F832FB5
:10FAE00082BD2F5F3F4F4F4F5F4FF89A80B5DB01CC
:10FAF0008D93BD012E153F054007510761F7C05E8C
:10FB0000DE4F288339834A835B83C052D1409601FC
:10FB10002D5F3F4FFB01108204C080EC8A8322E0FE
:10FB200030E08BE18093C6008091C00086FFFCCF5F
:10FB30008091C00080648093C000C15DDE4FF88179
:10FB4000CF52D140F093C6008091C00086FFFCCF19
:10FB50008091C00080648093C000432F3093C60022
:10FB60008091C00086FFFCCF8091C00080648093AC
:10FB7000C000922F2093C6008091C00086FFFCCF6A
:10FB80008091C00080648093C0008EE08093C600A6
:10FB90008091C00086FFFCCF8091C000806480937C
:10FBA000C00065E1C15DDE4FE880CF52D1406E25D7
:10FBB00069276427FE01319610C090819093C6009A
:10FBC0008091C00086FFFCCF31968091C000806498
:10FBD0008093C0006927215030402115310569F715
:10FBE0006093C6008091C00086FFFCCF8091C0006A
:10FBF00080648093C00085B1805885B9772081F4F6
:10FC0000C15DDE4F0881CF52D1400F5FC15DDE4F35
:10FC10000883CF52D14090E0A0E0B0E00D941AF4F8
:10FC200027982F9880E090E020ED37E0F901319798
:10FC3000F1F7019684369105C9F700008091C00064
:10FC40008D7F8093C00081E180935700E895EE2777
:10FC5000FF270994FFCF90E00D941AF497FB092E2B
:10FC600007260AD077FD04D02ED006D000201AF443
:10FC7000709561957F4F0895F6F7909581959F4F08
:10FC80000895A1E21A2EAA1BBB1BFD010DC0AA1FDD
:10FC9000BB1FEE1FFF1FA217B307E407F50720F0F5
:10FCA000A21BB30BE40BF50B661F771F881F991F70
:10FCB0001A9469F760957095809590959B01AC01B9
:10FCC000BD01CF010895AA1BBB1B51E107C0AA1FAC
:10FCD000BB1FA617B70710F0A61BB70B881F991FED
:10FCE0005A95A9F780959095BC01CD010895F99991
:10FCF000FECF92BD81BDF89A992780B50895262F31
:10FD0000F999FECF1FBA92BD81BD20BD0FB6F89400
:0EFD1000FA9AF99A0FBE01960895F894FFCF63
:00000001FF
