:100000000C9463000C948B000C948B000C948B006C
:100010000C948B000C948B000C948B000C948B0034
:100020000C948B000C948B000C948B000C948B0024
:100030000C948B000C948B000C948B000C948B0014
:100040000C94A3070C948B000C9471070C944B0731
:100050000C948B000C948B000C948B000C948B00F4
:100060000C94ED070C948B00000000002400270086
:100070002A0000000000250028002B0000000000DE
:1000800023002600290004040404040404040202DA
:100090000202020203030303030301020408102007
:1000A0004080010204081020010204081020000012
:1000B0000008000201000003040700000000000027
:1000C00000000C098D0D11241FBECFEFD8E0DEBF5C
:1000D000CDBF23E0A6EAB1E001C01D92A33AB2076A
:1000E000E1F711E0A0E0B1E0E4EAFFE102C0059031
:1000F0000D92A63AB107D9F710E0C2E6D0E004C0ED
:100100002197FE010E94CD0DC136D107C9F70E948B
:10011000F3090C94C50F0C94000096E0899FD00160
:100120001124A25EBC4F90967C936E935F9791E0F2
:1001300091969C939197E0918B03F0918C03909111
:100140008A03992339F0309751F0811108C08091CA
:100150003A030994309719F05C968C91FACF089580
:10016000CF92DF92EF92FF920F931F9396E0899FB9
:10017000F0011124E25EFC4F11A2278D30A1213045
:10018000310551F178F02230310509F451C02330A6
:10019000310509F452C01F910F91FF90EF90DF904D
:1001A000CF9008956623B9F361E070E00E948D005E
:1001B0002FB7F8948091210290912202A0912302FE
:1001C000B09124022FBF8093760390937703A0937E
:1001D0007803B0937903DFCF9FB7F894C0902102E2
:1001E000D0902202E0902302F09024029FBF009161
:1001F0007603109177032091780330917903C01A28
:10020000D10AE20AF30A009188031091890330E0D1
:1002100020E00C151D052E053F0550F462E070E04E
:100220001F910F91FF90EF90DF90CF900C948D0075
:100230006111B1CF63E070E0F3CF70E060E0F0CF28
:1002400008950895AF92BF92CF92DF92EF92FF92FE
:100250000F931F93CF93DF936C017B018B01040FEE
:10026000151FEB015E01AE18BF08C017D10759F08A
:100270006991D601ED91FC910190F081E02DC601CC
:100280000995892B79F7C501DF91CF911F910F91C6
:10029000FF90EF90DF90CF90BF90AF900895FC015A
:1002A000538D448D252F30E0842F90E0821B930BDB
:1002B000541710F0CF96089501970895FC01918D81
:1002C000828D981761F0A28DAE0FBF2FB11D5D9684
:1002D0008C91928D9F5F9F73928F90E008958FEF26
:1002E0009FEF0895FC01918D828D981731F0828DDA
:1002F000E80FF11D858D90E008958FEF9FEF089531
:10030000FC01918D228D892F90E0805C9F4F821B94
:1003100091098F739927089585E792E00E948001E3
:1003200021E0892B09F420E0822F089580E090E0FD
:10033000892B29F00E948C0181110C9400000895F2
:10034000FC01A48DA80FB92FB11DA35ABF4F2C914A
:10035000848D90E001968F739927848FA689B78941
:100360002C93A089B1898C91837080648C93938D38
:10037000848D981306C00288F389E02D80818F7DDB
:1003800080830895EF92FF920F931F93CF93DF9393
:10039000EC0181E0888F9B8D8C8D98131AC0E889C1
:1003A000F989808185FF15C09FB7F894EE89FF8990
:1003B0006083E889F98980818370806480839FBF2E
:1003C00081E090E0DF91CF911F910F91FF90EF902E
:1003D0000895F62E0B8D10E00F5F1F4F0F7311273E
:1003E000E02E8C8D8E110CC00FB607FCFACFE88979
:1003F000F989808185FFF5CFCE010E94A001F1CF60
:10040000EB8DEC0FFD2FF11DE35AFF4FF0829FB7EC
:10041000F8940B8FEA89FB8980818062CFCFCF93DC
:10042000DF93EC01888D8823B9F0AA89BB89E8891C
:10043000F9898C9185FD03C0808186FD0DC00FB6C2
:1004400007FCF7CF8C9185FFF2CF808185FFEDCF40
:10045000CE010E94A001E9CFDF91CF9108958330B2
:1004600081F028F4813099F08230A9F00895873026
:10047000A9F08830C9F08430B1F4809180008F7D7C
:1004800003C0809180008F7780938000089584B5A9
:100490008F7784BD089584B58F7DFBCF8091B000A8
:1004A0008F778093B00008958091B0008F7DF9CF51
:1004B000CF93DF93282F30E0F901E255FF4F84916D
:1004C000F901E656FF4FD491F901EA57FF4FC49165
:1004D000CC23A1F081110E942F02EC2FF0E0EE0F4F
:1004E000FF1FE458FF4FA591B491EC91ED2381E0FB
:1004F00090E009F480E0DF91CF91089580E090E0F2
:10050000FACF862F0C9458021F93CF93DF93282F96
:1005100030E0F901E255FF4F8491F901E656FF4FB3
:10052000D491F901EA57FF4FC491CC23A9F0162FBB
:1005300081110E942F02EC2FF0E0EE0FFF1FEE580A
:10054000FF4FA591B4918FB7F894EC91111108C0A9
:10055000D095DE23DC938FBFDF91CF911F9108955B
:10056000DE2BF8CF862F642F0C948402CF93DF9379
:1005700090E0FC01E656FF4F24918A579F4FFC0103
:1005800084918823C9F090E0880F991FFC01E859F5
:10059000FF4FA591B491FC01EE58FF4FC591D49146
:1005A00061110DC09FB7F8948C91209582238C9394
:1005B0008881282328839FBFDF91CF9108956230DF
:1005C00051F49FB7F8943C91822F809583238C93AC
:1005D000E8812E2BEFCF8FB7F894EC912E2B2C9334
:1005E0008FBFEACF862F642F0C94B6023FB7F894E2
:1005F00080910B0290910C02A0910D02B0910E021D
:1006000026B5A89B05C02F3F19F00196A11DB11D6D
:100610003FBFBA2FA92F982F8827BC01CD01620FA9
:10062000711D811D911D42E0660F771F881F991F64
:100630004A95D1F708958F929F92AF92BF92CF9231
:10064000DF92EF92FF924B015C010E94F6026B0178
:100650007C010E94F6026C197D098E099F09683E93
:10066000734081059105A8F321E0821A9108A10841
:10067000B10888EEC80E83E0D81EE11CF11C81147D
:100680009104A104B10429F7FF90EF90DF90CF907F
:10069000BF90AF909F908F9008952091E701260F13
:1006A0003327331F21323105ECF420914B02FC013A
:1006B00090E080E0243069F082E00895A091E701A5
:1006C0002191AC0149535E4FA40FB52FB11D2C935E
:1006D0000196861798F38091E701680F6093E70110
:1006E00080E0089581E0089510924B0281E08093AC
:1006F0004A021092250261E082E10E94840261E0D8
:1007000083E10E948402E9EBF0E080818E7F8083A8
:1007100080818D7F808388E48093B80085E4809316
:10072000BC000895CF93DF9391E09093C601882396
:10073000B9F0C091B800D091BA008091BC008A7B1A
:100740008093BC0060E082E10E94840260E083E16B
:100750000E9484020E947403D093BA00C093B80030
:10076000DF91CF910895CF92DF92EF92FF920F9396
:100770001F93CF93DF93D091740281E0D13208F0C0
:100780009CC0C09173020E94F6026B017C018091B3
:100790004B0281116CC082E080934B0281E0809318
:1007A0004A028FEF8093490210924802D093470289
:1007B000A3E5B2E0E7E2F2E080E0D8138DC010924A
:1007C000260280912602CC0FC82BC093260280916E
:1007D0002502813009F084C0109225020E94F602A1
:1007E0006B017C01809126028093BB0080914D02B9
:1007F00090914E02A0914F02B0915002892B8A2B0A
:100800008B2BA1F00E94F60200914D0210914E0236
:1008100020914F02309150026C197D098E099F0979
:10082000061717072807390708F442C08091BC0053
:1008300083FDD8CF85EC8093BC000E94F6026B014B
:100840007C0180914B02823009F44CC080914902B6
:100850008F3F09F469C080914902803209F466C073
:1008600080914902803309F463C084E026C08091FE
:100870004D0290914E02A0914F02B0915002892BEF
:100880008A2B8B2B09F483CF0E94F60200914D0234
:1008900010914E0220914F02309150026C197D0947
:1008A0008E099F09061717072807390708F06FCF29
:1008B00080914C020E94920385E0109252021092A5
:1008C000740210925102DF91CF911F910F91FF900E
:1008D000EF90DF90CF9008959D9191938F5F6DCFB2
:1008E00085EEA9CF80914D0290914E02A0914F02CA
:1008F000B0915002892B8A2B8B2B09F4A2CF0E9436
:10090000F60200914D0210914E0220914F0230915B
:1009100050026C197D098E099F09061717072807D1
:10092000390708F08ECFC4CF80E0C7CF82E0C5CFB3
:1009300083E0C3CF0895E091140280911302E81779
:1009400030F4F0E0EA55FE4F808190E008958FEF9B
:100950009FEF089590911402809113022FEF3FEFC3
:10096000981748F4E92FF0E0EA55FE4F208130E077
:100970009F5F90931402C901089580911302909192
:100980001402891B990B0895CF92DF92EF92FF9288
:100990000F931F93CF93DF937C01CB018A012091AA
:1009A0005102222389F0EB016B01C40ED51ECC1538
:1009B000DD0569F06991D701ED91FC910190F0811D
:1009C000E02DC7010995F3CF642F0E944D03C801A4
:1009D000DF91CF911F910F91FF90EF90DF90CF901B
:1009E0000895CF93DF931F92CDB7DEB7698320912F
:1009F00051022223F9F020917402203258F021E0B4
:100A000030E0FC013383228390E080E00F90DF919F
:100A1000CF91089580915202E82FF0E0ED5AFD4FFA
:100A2000998190838F5F809352028093740281E05A
:100A300090E0ECCF61E0CE0101960E944D03F7CF2C
:100A4000682F82E193E00C94F104FC01248131E0F1
:100A5000309351022093730210925202109274024A
:100A60008385862B90E00E9420050C94B3030895A3
:100A700090E080E008950F931F93CF938C01C62FD1
:100A80000E9425056C2F6460C8010E9425056C2F0B
:100A90006B7FC8010E94250583EC90E00197F1F778
:100AA000CF911F910F9108950F931F93CF93DF93D1
:100AB0008C01D62FC42F607F642B0E943B0580E100
:100AC000D89FB00111246C2BC801DF91CF911F91E9
:100AD0000F910C943B05CF93DF93CDB7DEB72897EA
:100AE0000FB6F894DEBF0FBECDBF98E0E0E2F1E0B4
:100AF000DE01119601900D929A95E1F790919B037A
:100B0000961708F46FEF262F30E0220F331F41E0D5
:100B100050E04C0F5D1F240F351FF9016081680FF5
:100B2000606840E083E993E028960FB6F894DEBF52
:100B30000FBECDBFDF91CF910C94540540E061E032
:100B400083E993E00E9454058BE39FE10197F1F75D
:100B5000089541E00E94540581E090E00895CF920D
:100B6000DF92EF92FF920F931F9381E080935102E7
:100B700088E48093730210925202109274028AEAFF
:100B800090E00E9420050E94B3030E94F6026B01D0
:100B90007C0180914B02811163C081E080934B0204
:100BA00080934A029FEF909349021092480210925C
:100BB0004702809326028091260280698093260254
:100BC00080912502813009F089C0109225020E948F
:100BD000F6026B017C01809126028093BB0080911C
:100BE0004D0290914E02A0914F02B0915002892B7C
:100BF0008A2B8B2BA1F00E94F60200914D021091DE
:100C00004E0220914F02309150026C197D098E09DD
:100C10009F09061717072807390708F442C0809173
:100C2000BC0083FDD8CF85EC8093BC000E94F60207
:100C30006B017C0180914B02813009F451C080919D
:100C4000480281116FC080914802A7E2B2E0E6EA53
:100C5000F1E090E0981751F12D9121939F5FFACF29
:100C600080914D0290914E02A0914F02B09150029E
:100C7000892B8A2B8B2B09F48CCF0E94F6020091D2
:100C80004D0210914E0220914F02309150026C198A
:100C90007D098E099F09061717072807390708F0ED
:100CA00078CF80914C020E94920380E0109214024F
:100CB0008093130282E193E00E94AA0490931602AB
:100CC0008093150268EC70E080E090E01F910F9136
:100CD000FF90EF90DF90CF900C941B0385EEA4CF94
:100CE00080914D0290914E02A0914F02B09150021E
:100CF000892B8A2B8B2B09F49DCF0E94F602009141
:100D00004D0210914E0220914F02309150026C1909
:100D10007D098E099F09061717072807390708F06C
:100D200089CFBFCF81E091CFFC0101900020E9F78E
:100D30003197AF01481B590BBC0183E993E00C9438
:100D400022010E949E0560E083E00E946B0582E61E
:100D500091E00E94940661E084E00E946B058DE6BC
:100D600091E00C949406CF93DF93EC0180918D0376
:100D700090918E03009759F020918F03309190034A
:100D80002C173D0720F081E0DF91CF910895BE013F
:100D90006F5F7F4F0E94F80E009789F090938E034B
:100DA00080938D03D0939003C0938F032091910380
:100DB00030919203232B39F7FC011082E4CF80E0BD
:100DC000E3CF90E080E00E94B30620918D03309144
:100DD0008E03811113C02115310519F0C9010E943C
:100DE0006F0E10928E0310928D0310929203109248
:100DF00091031092900310928F0308951092920322
:100E0000109291036CE871E0C9010C94BE0F8CE85C
:100E100091E0E7E1F2E080838183828383838483AE
:100E200085830C94E10685ED8093BC0080914D0292
:100E300090914E02A0914F02B09150020796A11DD1
:100E4000B11D23E0B695A795979587952A95D1F77B
:100E50002091BC0024FD03C010924B0208954091E4
:100E60004D0250914E0260914F0270915002452BFD
:100E7000462B472B69F30097A105B10541F025E307
:100E80002A95F1F700000197A109B109E1CF8091FE
:100E90004C020C9492031F920F920FB60F921124E2
:100EA0002F933F934F935F936F937F938F939F9372
:100EB000AF93BF93EF93FF9385E792E00E94A00169
:100EC000FF91EF91BF91AF919F918F917F916F9122
:100ED0005F914F913F912F910F900FBE0F901F90F8
:100EE00018951F920F920FB60F9211242F938F9384
:100EF0009F93EF93FF93E0918502F09186028081AA
:100F0000E0918B02F0918C0282FD1BC09081809158
:100F10008E028F5F8F7320918F02821741F0E091D4
:100F20008E02F0E0EB58FD4F958F80938E02FF917B
:100F3000EF919F918F912F910F900FBE0F901F9067
:100F400018958081F4CF1F920F920FB60F92112443
:100F50002F933F938F939F93AF93BF9380912102E1
:100F600090912202A0912302B091240230910A02B2
:100F700023E0230F2D3758F50196A11DB11D2093B5
:100F80000A028093210290932202A0932302B0933D
:100F9000240280910B0290910C02A0910D02B0915D
:100FA0000E020196A11DB11D80930B0290930C02BD
:100FB000A0930D02B0930E02BF91AF919F918F91BC
:100FC0003F912F910F900FBE0F901F90189526E81C
:100FD000230F0296A11DB11DD2CF1F920F920FB603
:100FE0000F9211242F933F934F935F936F937F93AF
:100FF0008F939F93AF93BF93EF93FF938091B9002B
:10100000887F803609F44AC0F0F5883209F4A7C019
:1010100018F5803109F49BC0B8F4882309F4F9C0AD
:10102000883009F494C0FF91EF91BF91AF919F91E7
:101030008F917F916F915F914F913F912F910F9081
:101040000FBE0F901F901895883109F488C0803228
:1010500051F78093490214C0803409F49DC040F4D4
:101060008033B9F38833F9F68093490285ECB0C038
:10107000803509F485C0883509F496C0883499F61E
:101080000E941307D0CF883909F48CC038F588370F
:1010900029F050F4883611F0803729F683E08093E8
:1010A0004B021092090257C0883809F47BC080397E
:1010B00019F0803809F0B7CF80910902803208F02A
:1010C00071C0E091090281E08E0F80930902809146
:1010D000BB00F0E0E751FE4F80833DC0803B39F01C
:1010E000E0F4803A09F479C0883A09F09CCF84E0B2
:1010F00080934B021092E8011092E701E0911102F7
:10110000F091120209958091E70181110FC081E0F1
:101110008093E7011092C70109C0803C09F4A6CF73
:10112000883C09F4A3CF883B09F07DCFE091E8012A
:1011300081E08E0F8093E801F0E0E953FE4F80815B
:101140008093BB009091E8018091E70129C08091D4
:1011500026028093BB0085EC8093BC0064CF909105
:10116000480280914702981758F5E091480281E0C3
:101170008E0F80934802F0E0E95DFD4F8081E9CF5A
:10118000E091480281E08E0F809348028091BB007D
:10119000F0E0E95DFD4F8083909148028091470225
:1011A0009817C8F285E8D8CFE091480281E08E0F09
:1011B000809348028091BB00F0E0E95DFD4F8083A1
:1011C00080914A0281115CCF81E08093250284EAFC
:1011D0008093BC0010924B0226CF85EC8093BC001C
:1011E00010924B0280910902803230F4E0910902A2
:1011F000F0E0E751FE4F10826091090270E0E0914B
:101200000F02F091100289EE91E009951092090207
:101210000ACF1092490234CF1092780210927702CE
:1012200088EE93E0A0E0B0E08093790290937A0298
:10123000A0937B02B0937C022CE231E030937602E3
:101240002093750225EC30E03093820220938102D6
:1012500024EC30E0309384022093830220EC30E0D1
:10126000309386022093850221EC30E0309388028F
:101270002093870222EC30E030938A022093890287
:1012800026EC30E030938C0220938B0210928E0279
:1012900010928F02109290021092910210921503F8
:1012A000109214038093160390931703A0931803CE
:1012B000B09319038EE391E090931303809312038C
:1012C00010929603109295038AE591E0909394030F
:1012D0008093930380E28093970380E180939C0343
:1012E00082E080939D0310929E0310928E031092D1
:1012F0008D031092900310928F031092920310921C
:10130000910390E080E00E94B30620918D0330911C
:101310008E0381115EC02115310519F0C9010E94AB
:101320006F0E10928E0310928D0310929203109202
:1013300091031092900310928F0310922003109249
:101340002403109223031092250380E591E09093EB
:101350001F0380931E03EAE3F3E0108214821382DA
:101360001582369683E0E637F807B9F78AE091E010
:10137000909381038093800387E091E090938303AF
:101380008093820384E08093840383E080938503C9
:101390008EE091E090937F0380937E038AE090E05B
:1013A000909387038093860384EF91E09093890361
:1013B0008093880310928C0310928B0310927A030F
:1013C00010927B0310927C0310927D0310928A038B
:1013D000089510929203109291036CE871E0C90194
:1013E0000E94BE0FAACFCF93DF9300D0CDB7DEB758
:1013F000789484B5826084BD84B5816084BD85B5F0
:10140000826085BD85B5816085BD80916E008160FB
:1014100080936E00109281008091810082608093A1
:1014200081008091810081608093810080918000A3
:101430008160809380008091B10084608093B100CE
:101440008091B00081608093B00080917A008460C8
:1014500080937A0080917A00826080937A008091F4
:101460007A00816080937A0080917A00806880930E
:101470007A001092C100E0918502F091860282E02C
:101480008083E0918102F09182021082E0918302D8
:10149000F09184028FEC808310928D02E09189029A
:1014A000F0918A0286E08083E0918702F0918802C1
:1014B000808180618083E0918702F0918802808141
:1014C00088608083E0918702F09188028081806843
:1014D0008083E0918702F091880280818F7D8083F4
:1014E000109214021092130210925202109274027F
:1014F0000E94740380E291E09093120280931102A3
:1015000081E291E09093100280930F020E94740395
:101510001092980380919D03823018F098E0909388
:10152000980380939B0362E370E080E090E00E9468
:101530001B0360919E0383E993E00E94250568EEFA
:1015400073E080E090E00E941B0360E383E993E096
:101550000E943B050BE416E4C8010197F1F760E334
:1015600083E993E00E943B05C8010197F1F760E32E
:1015700083E993E00E943B0583E592E00197F1F750
:1015800060E283E993E00E943B056091980360620A
:1015900040E083E993E00E94540584E0809399033E
:1015A00040E06CE083E993E00E9454050E949E05B0
:1015B00082E080939A0340E066E083E993E00E9432
:1015C000540540E062E083E993E00E9454058BE318
:1015D0009FE10197F1F788E080939E0360E083E943
:1015E00093E00E94250560E083E00E946B0582E69F
:1015F00091E00E94940661E084E00E946B058DE614
:1016000091E00E94940681E08093510288E48093E7
:10161000730210925202109274028CEA90E00E94BF
:10162000200582E090E00E94200510925202109264
:1016300074028EEE90E00E9420050E94B303412CBC
:10164000512C32014394DD24D39437E1C32ED09240
:101650008A038FB7F8944091210250912202609141
:101660002302709124028FBF80917A0390917B03B3
:10167000A0917C03B0917D03481B590B6A0B7B0B37
:101680008091860390918703B0E0A0E084179507CE
:10169000A607B70708F035C110E08091840318173A
:1016A00060F4E0918003F0918103E10FF11D62E0AD
:1016B00080810E94B6021F5FF0CF312C809185039C
:1016C000381608F061C0E32CF12CE0918203F09110
:1016D0008303EE0DFF1D61E080810E94B602E09160
:1016E0008203F0918303EE0DFF1D60E080810E9474
:1016F0008402D301C201032C04C0880F991FAA1FC2
:10170000BB1F0A94D2F74C015C01A094B094212C29
:1017100080918403281608F5022D10E0E0918003E3
:10172000F0918103E00FF11F80810E9458020C5F4D
:101730001F4F000F111FF801E25EFC4F892B41F48F
:101740008081918188299929918380832394E0CF96
:10175000808191818A219B21F7CFE0918203F091D2
:101760008303EE0DFF1D61E080810E948402809161
:10177000820390918303E80EF91E60E0F7018081F7
:101780000E94B60233949ACF9EE1E92E93E0F92E9F
:101790008701F801878D90A1892B31F4148E8FEF8A
:1017A0009FEF968F858F11A20A5F1F4FEAE5F3E046
:1017B000E017F10771F7B12C80918403B81608F097
:1017C00053C0A12C8B2C912C880C991CC4018A5DD0
:1017D0009C4F4C0120918503A21608F043C0F401F0
:1017E000608171810A2C02C0769567950A94E2F7B0
:1017F000B29E900111242A0D311DEEE1F3E080E04C
:10180000458D568D2417350709F485C18F5F3696AF
:101810008A30B1F760FF24C0EEE1F3E090E080E0B1
:10182000448D411118C0E0917E03F0917F03E20FD7
:10183000F31F408156E0589FF001599FF00D11248D
:10184000E25EFC4F448F368F258F10A2178E61E029
:101850000E94B00005C0019636968A30910501F7C6
:10186000A394B8CFB394A8CF80E0F70191A19111D0
:10187000892FF6E0EF0EF11CE016F106B1F79FB7E5
:10188000F8944091210250912202609123027091BC
:1018900024029FBF40937A0350937B0360937C03A1
:1018A00070937D03882369F180913F03882349F178
:1018B00080913D0390913E03019719F5F0903A0312
:1018C000F11022C080911D0290911E02019709F033
:1018D0008EC00E94AF0580911502D0925102C09235
:1018E00073021092520210927402082E000C990B8F
:1018F0000E9420050E94B30364E670E080E090E05F
:1019000028C010928A03DECF0E949E0553E2F51292
:1019100023C00E9407071092200210921F0210920B
:101920001E0210921D020E94E1060E94A106D092A2
:101930005102C0927302109252021092740281E41A
:1019400090E00E9420050E94B30368EC70E080E004
:1019500090E00E941B034BC000911F0210912002D7
:101960008AE2F81609F450C0F801E95EFD4FF082F2
:10197000F9821A82E0909103F09092039FEFE91AA6
:10198000F90AC7010E94B306882399F020918D03BC
:1019900030918E038091910390919203BE016F5F0D
:1019A0007F4F820F931F0E94BE0FF0929203E0922E
:1019B00091030F5F1F4F1093200200931F0260E0FE
:1019C00084E00E946B0586E791E00E94940661E046
:1019D00083E00E946B0540919103509192036091C6
:1019E0008D0370918E0383E993E00E94220180E0D1
:1019F00090E0892B09F42BCE0E948C01882309F4F6
:101A000022CE0E9400001FCE0630110509F040C012
:101A1000809117028233E1F5809118028033C1F57D
:101A2000809119028233A1F580911A02813381F5E8
:101A300080911B02813361F580911C02883341F54E
:101A4000E1E0F0E0F0931E02E0931D020E949E058B
:101A500060E082E00E946B058FE791E00E949406AF
:101A600061E086E00E946B058DE891E00E9494069B
:101A70000E94AF0580911502D0925102C09273026C
:101A80001092520210927402082E000C990B59CF3A
:101A900010921E0210921D020E949E0560E084E0DA
:101AA0000E946B0582E991E00E94940661E083E068
:101AB0000E946B058BE991E00E94940640E060E48F
:101AC00083E993E00E94540500E011E0F801619180
:101AD0008F0183E993E00E94A905F1E008301F0718
:101AE000A9F761E08BE00E946B0560E083E993E079
:101AF0000E94A9050E9407070E94E1061092200299
:101B000010921F0264EF71E080E090E00E941B03DE
:101B10000E94A1066CCF61709BCE80918D03909145
:101B20008E03009711F00C946F0E08952F923F9240
:101B30004F925F926F927F928F929F92AF92BF92DD
:101B4000CF92DF92EF92FF920F931F93CF93DF9389
:101B5000CDB7DEB7CA1BDB0B0FB6F894DEBF0FBEE6
:101B6000CDBF09942A88398848885F846E847D8433
:101B70008C849B84AA84B984C884DF80EE80FD8035
:101B80000C811B81AA81B981CE0FD11D0FB6F894AB
:101B9000DEBF0FBECDBFED010895EE0FFF1F059014
:101BA000F491E02D09940F931F93CF93DF9382302C
:101BB000910510F482E090E0E091A103F091A2037E
:101BC00030E020E0B0E0A0E0309799F42115310535
:101BD00009F44AC0281B390B24303105D8F58A8115
:101BE0009B816115710589F1FB0193838283FE015D
:101BF00011C0408151810281138148175907E0F0DB
:101C00004817590799F4109761F012960C931297A0
:101C100013961C933296CF01DF91CF911F910F91B4
:101C200008950093A1031093A203F4CF2115310569
:101C300051F04217530738F0A901DB019A01BD01A9
:101C4000DF01F801C1CFEF01F9CF9093A203809398
:101C5000A103CDCFFE01E20FF31F81939193225098
:101C6000310939832883D7CF20919F033091A00376
:101C7000232B41F420911C0130911D013093A003CE
:101C800020939F0320911A0130911B0121153105EA
:101C900041F42DB73EB740911E0150911F01241B06
:101CA000350BE0919F03F091A003E217F307A0F436
:101CB0002E1B3F0B2817390778F0AC014E5F5F4FA2
:101CC0002417350748F04E0F5F1F5093A003409331
:101CD0009F03819391939FCFF0E0E0E09CCFCF935F
:101CE000DF930097E9F0FC01329713821282A091F2
:101CF000A103B091A203ED0130E020E01097A1F420
:101D000020813181820F931F20919F033091A00386
:101D10002817390709F061C0F093A003E0939F03EF
:101D2000DF91CF910895EA01CE17DF07E8F54A81E8
:101D30005B819E0141155105B1F7E901FB83EA83FF
:101D400049915991C40FD51FEC17FD0761F48081AB
:101D500091810296840F951FE9019983888382817E
:101D600093819B838A83F0E0E0E012968D919C91B1
:101D700013970097B9F52D913C911197CD010296DB
:101D8000820F931F20919F033091A00328173907DA
:101D900039F6309751F51092A2031092A103B09337
:101DA000A003A0939F03BCCFD383C2834081518102
:101DB000840F951FC817D90761F44E5F5F4F888164
:101DC0009981480F591F518340838A819B81938356
:101DD00082832115310509F0B0CFF093A203E0937F
:101DE000A1039ECFFD01DC01C0CF13821282D7CFA9
:101DF000B0E0A0E0EEEFFEE00C94980D8C010097AF
:101E000051F4CB010E94D30D8C01C801CDB7DEB7D0
:101E1000E0E10C94B40DFC01E60FF71F9C01225089
:101E20003109E217F30708F49DC0D901CD91DC9187
:101E30001197C617D70798F0C530D10530F3CE01FA
:101E400004978617970708F3C61BD70B2297C193F1
:101E5000D1936D937C93CF010E946F0ED6CF5B011F
:101E6000AC1ABD0A4C018C0E9D1EA091A103B0912D
:101E7000A203512C412CF12CE12C109731F58091CB
:101E80009F039091A0038815990509F05CC0461640
:101E9000570608F058C080911A0190911B010097D5
:101EA00041F48DB79EB740911E0150911F01841BD4
:101EB000950BE817F90708F055C0F093A003E093DD
:101EC0009F03F90171836083A0CF8D919C9111973D
:101ED00012966C90129713967C901397A815B905DB
:101EE00059F56C0142E0C40ED11CCA14DB0420F188
:101EF000AC014A195B09DA011296159780F06282EB
:101F0000738251834083D9016D937C93E114F10472
:101F100071F0D7011396FC93EE93129776CF229629
:101F20008C0F9D1FF90191838083F301EFCFF09314
:101F3000A203E093A10369CF4816590608F42C01C7
:101F40007D01D3019ACFCB010E94D30D7C01009774
:101F500049F0AE01B8010E94B50FC8010E946F0E92
:101F6000870153CF10E000E050CFFB01DC0102C03D
:101F700001900D9241505040D8F70895FB01DC01CB
:101F800001900D920020E1F7089510E0C2E6D0E044
:101F900004C0FE010E94CD0D2196C336D107C9F7BA
:041FA000F894FFCFE3
:101FA4001F0011191513110D0C0B0A090807313202
:101FB400333435363738392A30230000A303800000
:101FC400000040001400540000000000C20122017F
:101FD4004F010F0280015E01720100000000F10454
:101FE400C40438059A04BD04AA049B04000000003C
:101FF400F202B202810200000000A90522013805A4
:1020040037054341534120414359453100412D4750
:1020140031382D53320050415353574F52440042EC
:1020240049454E56454E49444F20412000434153B3
:1020340041004552524F5220454E00434F4E545298
:062044004153452041005C
:00000001FF
