:020000040000FA
:100000000C9462000C948A000C948A000C948A0070
:100010000C948A000C948A000C948A000C948A0038
:100020000C948A000C948A000C948A000C948A0028
:100030000C948A000C948A000C948A000C948A0018
:100040000C9442070C948A000C9410070C94EA0656
:100050000C948A000C948A000C948A000C948A00F8
:100060000C948C070C948A000000000024002700E8
:100070002A0000000000250028002B0000000000DE
:1000800023002600290004040404040404040202DA
:100090000202020203030303030301020408102007
:1000A0004080010204081020010204081020000012
:1000B0000008000201000003040700000000000027
:1000C0000000AB0811241FBECFEFD8E0DEBFCDBFCC
:1000D00011E0A0E0B1E0E0E9F9E102C005900D9285
:1000E000A839B107D9F723E0A8E9B1E001C01D9212
:1000F000AB38B207E1F710E0C2E6D0E004C02197C8
:10010000FE010E94C00CC136D107C9F70E946009E8
:100110000C94C60C0C94000096E0899FD001112429
:10012000A05FBC4F90967C936E935F9791E0919601
:100130009C939197E0917D03F0917E0390917C03D5
:10014000992339F0309751F0811108C080912C0328
:100150000994309719F05C968C91FACF0895CF925C
:10016000DF92EF92FF920F931F9396E0899FF00129
:100170001124E05FFC4F11A2278D30A12130310501
:1001800051F178F02230310509F451C023303105A6
:1001900009F452C01F910F91FF90EF90DF90CF9024
:1001A00008956623B9F361E070E00E948C002FB7D8
:1001B000F8948091130290911402A0911502B091CD
:1001C00016022FBF8093680390936903A0936A037C
:1001D000B0936B03DFCF9FB7F894C0901302D09019
:1001E0001402E0901502F09016029FBF0091680380
:1001F0001091690320916A0330916B03C01AD10AF0
:10020000E20AF30A00917A0310917B0330E020E0C8
:100210000C151D052E053F0550F462E070E01F919E
:100220000F91FF90EF90DF90CF900C948C006111B4
:10023000B1CF63E070E0F3CF70E060E0F0CF0895FD
:100240000895AF92BF92CF92DF92EF92FF920F93F9
:100250001F93CF93DF936C017B018B01040F151F5C
:10026000EB015E01AE18BF08C017D10759F06991C4
:10027000D601ED91FC910190F081E02DC601099528
:10028000892B79F7C501DF91CF911F910F91FF90D5
:10029000EF90DF90CF90BF90AF900895FC01538D09
:1002A000448D252F30E0842F90E0821B930B541750
:1002B00010F0CF96089501970895FC01918D828DDD
:1002C000981761F0A28DAE0FBF2FB11D5D968C9176
:1002D000928D9F5F9F73928F90E008958FEF9FEFB5
:1002E0000895FC01918D828D981731F0828DE80F71
:1002F000F11D858D90E008958FEF9FEF0895FC012B
:10030000918D228D892F90E0805C9F4F821B9109F7
:100310008F739927089587E692E00E947F0121E07C
:10032000892B09F420E0822F089580E090E0892B4A
:1003300029F00E948B0181110C9400000895FC01AA
:10034000A48DA80FB92FB11DA35ABF4F2C91848D36
:1003500090E001968F739927848FA689B7892C9393
:10036000A089B1898C91837080648C93938D848DE6
:10037000981306C00288F389E02D80818F7D8083E9
:100380000895EF92FF920F931F93CF93DF93EC01A9
:1003900081E0888F9B8D8C8D98131AC0E889F9892C
:1003A000808185FF15C09FB7F894EE89FF8960832F
:1003B000E889F98980818370806480839FBF81E0B0
:1003C00090E0DF91CF911F910F91FF90EF900895F2
:1003D000F62E0B8D10E00F5F1F4F0F731127E02ECD
:1003E0008C8D8E110CC00FB607FCFACFE889F98905
:1003F000808185FFF5CFCE010E949F01F1CFEB8D6B
:10040000EC0FFD2FF11DE35AFF4FF0829FB7F894D8
:100410000B8FEA89FB8980818062CFCFCF93DF93F6
:10042000EC01888D8823B9F0AA89BB89E889F9890C
:100430008C9185FD03C0808186FD0DC00FB607FC41
:10044000F7CF8C9185FFF2CF808185FFEDCFCE0174
:100450000E949F01E9CFDF91CF910895833081F011
:1004600028F4813099F08230A9F008958730A9F0FE
:100470008830C9F08430B1F4809180008F7D03C052
:10048000809180008F7780938000089584B58F7766
:1004900084BD089584B58F7DFBCF8091B0008F77A8
:1004A0008093B00008958091B0008F7DF9CFCF93F5
:1004B000DF93282F30E0F901E255FF4F8491F901D5
:1004C000E656FF4FD491F901EA57FF4FC491CC2370
:1004D000A1F081110E942E02EC2FF0E0EE0FFF1F21
:1004E000E458FF4FA591B491EC91ED2381E090E0A9
:1004F00009F480E0DF91CF91089580E090E0FACF99
:10050000862F0C9457021F93CF93DF93282F30E050
:10051000F901E255FF4F8491F901E656FF4FD4915E
:10052000F901EA57FF4FC491CC23A9F0162F81118E
:100530000E942E02EC2FF0E0EE0FFF1FEE58FF4F4F
:10054000A591B4918FB7F894EC91111108C0D09592
:10055000DE23DC938FBFDF91CF911F910895DE2BB7
:10056000F8CF862F642F0C948302CF93DF9390E013
:10057000FC01E656FF4F24918A579F4FFC0184915E
:100580008823C9F090E0880F991FFC01E859FF4FBC
:10059000A591B491FC01EE58FF4FC591D491611122
:1005A0000DC09FB7F8948C91209582238C938881FD
:1005B000282328839FBFDF91CF910895623051F4A3
:1005C0009FB7F8943C91822F809583238C93E88188
:1005D0002E2BEFCF8FB7F894EC912E2B2C938FBF4F
:1005E000EACF862F642F0C94B5023FB7F894809120
:1005F000FD019091FE01A091FF01B091000226B58E
:10060000A89B05C02F3F19F00196A11DB11D3FBF4A
:10061000BA2FA92F982F8827BC01CD01620F711D19
:10062000811D911D42E0660F771F881F991F4A9513
:10063000D1F708958F929F92AF92BF92CF92DF929F
:10064000EF92FF924B015C010E94F5026B017C016D
:100650000E94F5026C197D098E099F09683E73405E
:1006600081059105A8F321E0821A9108A108B1083B
:1006700088EEC80E83E0D81EE11CF11C81149104A1
:10068000A104B10429F7FF90EF90DF90CF90BF90C5
:10069000AF909F908F9008952091D901260F332716
:1006A000331F21323105ECF420913D02FC0190E032
:1006B00080E0243069F082E00895A091D901219171
:1006C000AC0147545E4FA40FB52FB11D2C9301967A
:1006D000861798F38091D901680F6093D90180E063
:1006E000089581E0089510923D0281E080933C02DC
:1006F0001092170261E082E10E94830261E083E1CF
:100700000E948302E9EBF0E080818E7F808380810C
:100710008D7F808388E48093B80085E48093BC005B
:100720000895CF93DF9391E09093B8018823B9F0B7
:10073000C091B800D091BA008091BC008A7B8093B0
:10074000BC0060E082E10E94830260E083E10E94DD
:1007500083020E947303D093BA00C093B800DF9164
:10076000CF910895CF92DF92EF92FF920F931F9354
:10077000CF93DF93D091660281E0D13208F09CC024
:10078000C09165020E94F5026B017C0180913D02DF
:1007900081116CC082E080933D0281E080933C0235
:1007A0008FEF80933B0210923A02D0933902A5E476
:1007B000B2E0E9E1F2E080E0D8138DC010921802B7
:1007C00080911802CC0FC82BC09318028091170299
:1007D000813009F084C0109217020E94F5026B016B
:1007E0007C01809118028093BB0080913F02909120
:1007F0004002A0914102B0914202892B8A2B8B2B9F
:10080000A1F00E94F50200913F0210914002209158
:100810004102309142026C197D098E099F09061729
:1008200017072807390708F442C08091BC0083FDF0
:10083000D8CF85EC8093BC000E94F5026B017C014F
:1008400080913D02823009F44CC080913B028F3F81
:1008500009F469C080913B02803209F466C080913E
:100860003B02803309F463C084E026C080913F02DC
:1008700090914002A0914102B0914202892B8A2BB3
:100880008B2B09F483CF0E94F50200913F02109157
:10089000400220914102309142026C197D098E097B
:1008A0009F09061717072807390708F06FCF8091AF
:1008B0003E020E94910385E010924402109266026B
:1008C00010924302DF91CF911F910F91FF90EF9013
:1008D000DF90CF9008959D9191938F5F6DCF85EEBE
:1008E000A9CF80913F0290914002A0914102B09126
:1008F0004202892B8A2B8B2B09F4A2CF0E94F5028E
:1009000000913F0210914002209141023091420239
:100910006C197D098E099F090617170728073907E3
:1009200008F08ECFC4CF80E0C7CF82E0C5CF83E090
:10093000C3CF0895E091060280910502E81730F4D4
:10094000F0E0E856FE4F808190E008958FEF9FEF32
:10095000089590910602809105022FEF3FEF9817BE
:1009600048F4E92FF0E0E856FE4F208130E09F5F29
:1009700090930602C90108958091050290910602A4
:10098000891B990B0895CF92DF92EF92FF920F93FC
:100990001F93CF93DF937C01CB018A012091430207
:1009A000222389F0EB016B01C40ED51ECC15DD05A9
:1009B00069F06991D701ED91FC910190F081E02DF2
:1009C000C7010995F3CF642F0E944C03C801DF9142
:1009D000CF911F910F91FF90EF90DF90CF900895EE
:1009E000CF93DF931F92CDB7DEB769832091430287
:1009F0002223F9F020916602203258F021E030E005
:100A0000FC013383228390E080E00F90DF91CF914F
:100A1000089580914402E82FF0E0EB5BFD4F99814F
:100A200090838F5F809344028093660281E090E020
:100A3000ECCF61E0CE0101960E944C03F7CF682F06
:100A400084E093E00C94F004FC01248131E03093C5
:100A5000430220936502109244021092660283853D
:100A6000862B90E00E941F050C94B203089590E03D
:100A700080E00895FC0101900020E9F73197AF0173
:100A8000481B590BBC018FE793E00C94210185EDC5
:100A90008093BC0080913F0290914002A09141025E
:100AA000B09142020796A11DB11D23E0B695A7950E
:100AB000979587952A95D1F72091BC0024FD03C016
:100AC00010923D02089540913F0250914002609182
:100AD000410270914202452B462B472B69F3009748
:100AE000A105B10541F025E32A95F1F70000019732
:100AF000A109B109E1CF80913E020C9491030F93BB
:100B00001F93CF938C01C62F0E9424056C2F646025
:100B1000C8010E9424056C2F6B7FC8010E94240528
:100B200083EC90E00197F1F7CF911F910F91089519
:100B30000F931F93CF93DF938C01D62FC42F607F29
:100B4000642B0E947F0580E1D89FB00111246C2B9B
:100B5000C801DF91CF911F910F910C947F05CF9326
:100B6000DF93CDB7DEB728970FB6F894DEBF0FBE80
:100B7000CDBF98E0EAE1F1E0DE01119601900D921F
:100B80009A95E1F790918703961708F46FEF262F57
:100B900030E0220F331F41E050E04C0F5D1F240F67
:100BA000351FF9016081680F606840E08FE793E0CE
:100BB00028960FB6F894DEBF0FBECDBFDF91CF9160
:100BC0000C94980540E061E08FE793E00E9498055F
:100BD0008BE39FE10197F1F708950E94E20560E041
:100BE00083E00E94AF058CE591E00E943A0561E048
:100BF00084E00E94AF0587E691E00C943A0541E05D
:100C00000E94980581E090E00895CF92DF92EF92E4
:100C1000FF920F931F9381E08093430288E48093B7
:100C2000650210924402109266028AEA90E00E94E5
:100C30001F050E94B2030E94F5026B017C018091A6
:100C40003D02811163C081E080933D0280933C02AC
:100C50009FEF90933B0210923A02109239028093D8
:100C600018028091180280698093180280911702FF
:100C7000813009F089C0109217020E94F5026B01C1
:100C80007C01809118028093BB0080913F0290917B
:100C90004002A0914102B0914202892B8A2B8B2BFA
:100CA000A1F00E94F50200913F02109140022091B4
:100CB0004102309142026C197D098E099F09061785
:100CC00017072807390708F442C08091BC0083FD4C
:100CD000D8CF85EC8093BC000E94F5026B017C01AB
:100CE00080913D02813009F451C080913A02811116
:100CF0006FC080913A02A9E1B2E0E8E9F1E090E04A
:100D0000981751F12D9121939F5FFACF80913F0267
:100D100090914002A0914102B0914202892B8A2B0E
:100D20008B2B09F48CCF0E94F50200913F021091A9
:100D3000400220914102309142026C197D098E09D6
:100D40009F09061717072807390708F078CF809101
:100D50003E020E94910380E01092060280930502F9
:100D600084E093E00E94A904909308028093070214
:100D700068EC70E080E090E01F910F91FF90EF90A1
:100D8000DF90CF900C941A0385EEA4CF80913F02A0
:100D900090914002A0914102B0914202892B8A2B8E
:100DA0008B2B09F49DCF0E94F50200913F02109118
:100DB000400220914102309142026C197D098E0956
:100DC0009F09061717072807390708F089CFBFCFF3
:100DD00081E091CF1F920F920FB60F9211242F93A3
:100DE0003F934F935F936F937F938F939F93AF93B3
:100DF000BF93EF93FF9387E692E00E949F01FF91DC
:100E0000EF91BF91AF919F918F917F916F915F9182
:100E10004F913F912F910F900FBE0F901F901895FB
:100E20001F920F920FB60F9211242F938F939F93BF
:100E3000EF93FF93E0917702F09178028081E09147
:100E40007D02F0917E0282FD1BC090818091800224
:100E50008F5F8F7320918102821741F0E0918002B1
:100E6000F0E0E959FD4F958F80938002FF91EF915B
:100E70009F918F912F910F900FBE0F901F901895FB
:100E80008081F4CF1F920F920FB60F9211242F93EF
:100E90003F938F939F93AF93BF9380911302909151
:100EA0001402A0911502B09116023091FC0123E0CA
:100EB000230F2D3758F50196A11DB11D2093FC017C
:100EC0008093130290931402A0931502B09316021C
:100ED0008091FD019091FE01A091FF01B09100026F
:100EE0000196A11DB11D8093FD019093FE01A09379
:100EF000FF01B0930002BF91AF919F918F913F91FD
:100F00002F910F900FBE0F901F90189526E8230F7A
:100F10000296A11DB11DD2CF1F920F920FB60F9254
:100F200011242F933F934F935F936F937F938F93EE
:100F30009F93AF93BF93EF93FF938091B900887F06
:100F4000803609F44AC0F0F5883209F4A7C018F5D4
:100F5000803109F49BC0B8F4882309F4F9C08830C3
:100F600009F494C0FF91EF91BF91AF919F918F9140
:100F70007F916F915F914F913F912F910F900FBE95
:100F80000F901F901895883109F488C0803251F76E
:100F900080933B0214C0803409F49DC040F4803338
:100FA000B9F38833F9F680933B0285ECB0C0803505
:100FB00009F485C0883509F496C0883499F60E94F2
:100FC0004705D0CF883909F48CC038F5883729F027
:100FD00050F4883611F0803729F683E080933D0283
:100FE0001092FB0157C0883809F47BC0803919F092
:100FF000803809F0B7CF8091FB01803208F071C0D2
:10100000E091FB0181E08E0F8093FB018091BB009A
:10101000F0E0E552FE4F80833DC0803B39F0E0F4C4
:10102000803A09F479C0883A09F09CCF84E0809333
:101030003D021092DA011092D901E0910302F09181
:10104000040209958091D90181110FC081E080933C
:10105000D9011092B90109C0803C09F4A6CF883C9F
:1010600009F4A3CF883B09F07DCFE091DA0181E05C
:101070008E0F8093DA01F0E0E754FE4F8081809379
:10108000BB009091DA018091D90129C080911802AA
:101090008093BB0085EC8093BC0064CF90913A02B2
:1010A00080913902981758F5E0913A0281E08E0F4D
:1010B00080933A02F0E0E75EFD4F8081E9CFE09156
:1010C0003A0281E08E0F80933A028091BB00F0E0FB
:1010D000E75EFD4F808390913A0280913902981724
:1010E000C8F285E8D8CFE0913A0281E08E0F809374
:1010F0003A028091BB00F0E0E75EFD4F8083809173
:101100003C0281115CCF81E08093170284EA8093D6
:10111000BC0010923D0226CF85EC8093BC0010925B
:101120003D028091FB01803230F4E091FB01F0E060
:10113000E552FE4F10826091FB0170E0E0910102E8
:10114000F09102028BED91E009951092FB010ACF1C
:1011500010923B0234CF10926A021092690288EE1C
:1011600093E0A0E0B0E080936B0290936C02A093B8
:101170006D02B0936E0226E231E030936802209354
:10118000670225EC30E0309374022093730224EC64
:1011900030E0309376022093750220EC30E03093FB
:1011A00078022093770221EC30E030937A0220938A
:1011B000790222EC30E030937C0220937B0226EC13
:1011C00030E030937E0220937D02109280021092D4
:1011D00081021092820210928302109207031092F1
:1011E00006038093080390930903A0930A03B09326
:1011F0000B0388E391E0909305038093040310921E
:1012000082031092810384E591E0909380038093A0
:101210007F0380E28093830380E18093880382E0F0
:101220008093890310928A0310921203109216037E
:1012300010921503109217038AE491E09093110322
:1012400080931003ECE2F3E0108214821382158283
:10125000369683E0E836F807B9F78AE091E0909394
:1012600073038093720387E091E0909375038093FA
:10127000740384E08093760383E0809377038EE0A9
:1012800091E090937103809370038AE090E09093D3
:1012900079038093780384EF91E090937B038093AC
:1012A0007A0310927E0310927D0310926C031092C9
:1012B0006D0310926E0310926F0310927C030895D9
:1012C000789484B5826084BD84B5816084BD85B521
:1012D000826085BD85B5816085BD80916E0081602D
:1012E00080936E00109281008091810082608093D3
:1012F00081008091810081608093810080918000D5
:101300008160809380008091B10084608093B100FF
:101310008091B00081608093B00080917A008460F9
:1013200080937A0080917A00826080937A00809125
:101330007A00816080937A0080917A00806880933F
:101340007A001092C100E0917702F091780282E079
:101350008083E0917302F09174021082E091750233
:10136000F09176028FEC808310927F02E0917B02F5
:10137000F0917C0286E08083E0917902F0917A021C
:10138000808180618083E0917902F0917A0280818E
:1013900088608083E0917902F0917A028081806890
:1013A0008083E0917902F0917A0280818F7D808341
:1013B00010920602109205021092440210926602E8
:1013C0000E9473038FE191E09093040280930302E3
:1013D00080E291E090930202809301020E947303E5
:1013E0001092840380918903823018F098E09093E2
:1013F00084038093870362E370E080E090E00E94C2
:101400001A0360918A038FE793E00E94240568EE37
:1014100073E080E090E00E941A0360E38FE793E0BE
:101420000E947F05CBE4D6E4CE010197F1F760E39B
:101430008FE793E00E947F052197F1F760E38FE744
:1014400093E00E947F0583E592E00197F1F760E267
:101450008FE793E00E947F0560918403606240E023
:101460008FE793E00E94980584E08093850340E035
:101470006CE08FE793E00E9498050E94E20582E00D
:101480008093860340E066E08FE793E00E94980532
:1014900040E062E08FE793E00E9498058BE39FE1D4
:1014A0000197F1F788E080938A0360E08FE793E08B
:1014B0000E94240560E083E00E94AF058CE591E086
:1014C0000E943A0561E084E00E94AF0587E691E062
:1014D0000E943A0581E08093430288E4809365028C
:1014E00010924402109266028CEA90E00E941F055E
:1014F00082E090E00E941F05109244021092660262
:101500008EEE90E00E941F050E94B203412C512CE8
:10151000320143940DE711E0DD24D39437E1C32E6B
:10152000D0927C038FB7F89440911302509114022B
:1015300060911502709116028FBF80916C0390919B
:101540006D03A0916E03B0916F03481B590B6A0B9A
:101550007B0B8091780390917903B0E0A0E0841731
:101560009507A607B70708F031C1C0E08091760360
:10157000C81760F4E0917203F0917303EC0FF11D52
:1015800062E080810E94B502CF5FF0CF312C809164
:101590007703381608F05FC0E32CF12CE091740358
:1015A000F0917503EE0DFF1D61E080810E94B50290
:1015B000E0917403F0917503EE0DFF1D60E08081F2
:1015C0000E948302D301C201032C04C0880F991F1B
:1015D000AA1FBB1F0A94D2F74C015C01A094B094DF
:1015E000212C809176032816F8F4C22DD0E0E091EA
:1015F0007203F0917303EC0FFD1F80810E9457026C
:101600002496CC0FDD1FC05FDC4F892B41F488810D
:10161000998188299929998388832394E2CF8881A5
:1016200099818A219B21F7CFE0917403F091750392
:10163000EE0DFF1D61E080810E94830280917403A2
:1016400090917503E80EF91E60E0F70180810E9419
:10165000B50233949CCF90E1E92E93E0F92EE70197
:101660008F8D98A1892B31F41C8E8FEF9FEF9E8F69
:101670008D8F19A22696ECE4F3E0EC17FD0781F7B5
:10168000B12C80917603B81608F053C0A12C8B2C96
:10169000912C880C991CC401885E9C4F4C012091B0
:1016A0007703A21608F043C0F401608171810A2C0F
:1016B00002C0769567950A94E2F7B29E90011124D4
:1016C0002A0D311DE0E1F3E080E0458D568D2417B1
:1016D000350709F453C18F5F36968A30B1F760FF42
:1016E00024C0E0E1F3E090E080E0448D411118C0B7
:1016F000E0917003F0917103E20FF31F408156E017
:10170000589FF001599FF00D1124E05FFC4F448F6A
:10171000368F258F10A2178E61E00E94AF0005C0A2
:10172000019636968A30910501F7A394B8CFB39409
:10173000A8CF80E0F70191A19111892FF6E0EF0E7B
:10174000F11CEC16FD06B1F79FB7F8944091130217
:101750005091140260911502709116029FBF409340
:101760006C0350936D0360936E0370936F03882333
:1017700069F180913103882349F180912F03909181
:101780003003019719F520912C03211122C080917B
:101790000F0290911002019709F057C00E940506B0
:1017A00080910702D0924302C092650210924402D7
:1017B00010926602082E000C990B0E941F050E94D1
:1017C000B20364E670E080E090E02DC010927C03EC
:1017D000DECF233259F50093090200930A020093E9
:1017E0000B0200930C0200930D0200930E02109264
:1017F0001202109211021092100210920F020E9417
:10180000ED05D0924302C0926502109244021092FC
:10181000660281E490E00E941F050E94B20368EC1A
:1018200070E080E090E00E941A030FC080911102E6
:10183000909112022A32B1F0FC01E75FFD4F208344
:1018400001969093120280931102E0E0F0E0EF2BFA
:1018500009F466CE0E948B01882309F45DCE0E94B4
:1018600000005ACE069709F040C0809109028233E9
:10187000E1F580910A028033C1F580910B02823339
:10188000A1F580910C02813381F580910D028133A5
:1018900061F580910E02883341F581E090E09093EC
:1018A000100280930F020E94E20560E082E00E9435
:1018B000AF0580E791E00E943A0561E086E00E9472
:1018C000AF058EE791E00E943A050E9405068091DF
:1018D0000702D0924302C092650210924402109215
:1018E0006602082E000C990B96CF109210021092EF
:1018F0000F020E94E20560E084E00E94AF0583E8E9
:1019000091E00E943A0561E083E00E94AF058CE817
:1019100091E00E943A0540E060E48FE793E00E9486
:101920009805C0E0D1E069918FE793E00E94FF0540
:1019300091E0C830D907B9F761E08BE00E94AF05AC
:1019400060E08FE793E00E94FF0500930902009397
:101950000A0200930B0200930C0200930D02009305
:101960000E02109212021092110264EF71E080E0F8
:1019700090E00E941A030E94ED0567CF6170CDCE02
:10198000EE0FFF1F0590F491E02D0994F894FFCF1E
:101990001F0011191513110D0C0B0A09080731321C
:1019A000333435363738392A3023000040001400EC
:1019B000540000000000C10121014E010E027F0110
:1019C0005D01710100000000F004C30437059904B3
:1019D000BC04A9049A0400000000F102B1028002D4
:1019E00000000000FF052101370536054341534142
:1019F00020414359453100412D4731382D533200A4
:101A00004249454E56454E49444F204120004341EE
:101A10005341004552524F5220454E00434F4E54C1
:081A2000524153452041000032
:107E0000112484B714BE81FFF0D085E080938100F7
:107E100082E08093C00088E18093C10086E0809377
:107E2000C20080E18093C4008EE0C9D0259A86E02C
:107E300020E33CEF91E0309385002093840096BBD3
:107E4000B09BFECF1D9AA8958150A9F7CC24DD24C4
:107E500088248394B5E0AB2EA1E19A2EF3E0BF2EE7
:107E6000A2D0813461F49FD0082FAFD0023811F036
:107E7000013811F484E001C083E08DD089C08234E0
:107E800011F484E103C0853419F485E0A6D080C0E4
:107E9000853579F488D0E82EFF2485D0082F10E0AE
:107EA000102F00270E291F29000F111F8ED06801E7
:107EB0006FC0863521F484E090D080E0DECF843638
:107EC00009F040C070D06FD0082F6DD080E0C81688
:107ED00080E7D80618F4F601B7BEE895C0E0D1E017
:107EE00062D089930C17E1F7F0E0CF16F0E7DF06D8
:107EF00018F0F601B7BEE89568D007B600FCFDCFD4
:107F0000A601A0E0B1E02C9130E011968C91119780
:107F100090E0982F8827822B932B1296FA010C0160
:107F200087BEE89511244E5F5F4FF1E0A038BF0790
:107F300051F7F601A7BEE89507B600FCFDCF97BE46
:107F4000E89526C08437B1F42ED02DD0F82E2BD052
:107F50003CD0F601EF2C8F010F5F1F4F84911BD097
:107F6000EA94F801C1F70894C11CD11CFA94CF0C13
:107F7000D11C0EC0853739F428D08EE10CD085E9AC
:107F80000AD08FE07ACF813511F488E018D01DD067
:107F900080E101D065CF982F8091C00085FFFCCF94
:107FA0009093C60008958091C00087FFFCCF809118
:107FB000C00084FD01C0A8958091C6000895E0E648
:107FC000F0E098E1908380830895EDDF803219F02E
:107FD00088E0F5DFFFCF84E1DECF1F93182FE3DFCA
:107FE0001150E9F7F2DF1F91089580E0E8DFEE27F6
:047FF000FF270994CA
:027FFE00040479
:00000001FF
